{
  "_format": "hh-sol-artifact-1",
  "contractName": "TwoTVDeposit",
  "sourceName": "contracts/TwoTVDepositToken.sol",
  "abi": [
    {
      "inputs": [
        {
          "internalType": "contract IERC20",
          "name": "_token",
          "type": "address"
        }
      ],
      "stateMutability": "nonpayable",
      "type": "constructor"
    },
    {
      "inputs": [
        {
          "internalType": "address",
          "name": "owner",
          "type": "address"
        }
      ],
      "name": "OwnableInvalidOwner",
      "type": "error"
    },
    {
      "inputs": [
        {
          "internalType": "address",
          "name": "account",
          "type": "address"
        }
      ],
      "name": "OwnableUnauthorizedAccount",
      "type": "error"
    },
    {
      "anonymous": false,
      "inputs": [
        {
          "indexed": true,
          "internalType": "address",
          "name": "previousOwner",
          "type": "address"
        },
        {
          "indexed": true,
          "internalType": "address",
          "name": "newOwner",
          "type": "address"
        }
      ],
      "name": "OwnershipTransferred",
      "type": "event"
    },
    {
      "inputs": [
        {
          "internalType": "uint256",
          "name": "amount",
          "type": "uint256"
        },
        {
          "internalType": "uint256",
          "name": "months",
          "type": "uint256"
        }
      ],
      "name": "deposit",
      "outputs": [],
      "stateMutability": "nonpayable",
      "type": "function"
    },
    {
      "inputs": [
        {
          "internalType": "address",
          "name": "user",
          "type": "address"
        }
      ],
      "name": "depositsLength",
      "outputs": [
        {
          "internalType": "uint256",
          "name": "",
          "type": "uint256"
        }
      ],
      "stateMutability": "view",
      "type": "function"
    },
    {
      "inputs": [
        {
          "internalType": "address",
          "name": "user",
          "type": "address"
        },
        {
          "internalType": "uint256",
          "name": "index",
          "type": "uint256"
        }
      ],
      "name": "getDeposit",
      "outputs": [
        {
          "internalType": "uint256",
          "name": "amount",
          "type": "uint256"
        },
        {
          "internalType": "uint256",
          "name": "startTime",
          "type": "uint256"
        },
        {
          "internalType": "uint256",
          "name": "months",
          "type": "uint256"
        },
        {
          "internalType": "bool",
          "name": "withdrawn",
          "type": "bool"
        }
      ],
      "stateMutability": "view",
      "type": "function"
    },
    {
      "inputs": [
        {
          "internalType": "uint256",
          "name": "months",
          "type": "uint256"
        }
      ],
      "name": "getInterestRate",
      "outputs": [
        {
          "internalType": "uint256",
          "name": "",
          "type": "uint256"
        }
      ],
      "stateMutability": "view",
      "type": "function"
    },
    {
      "inputs": [
        {
          "internalType": "uint256",
          "name": "",
          "type": "uint256"
        }
      ],
      "name": "interestRates",
      "outputs": [
        {
          "internalType": "uint256",
          "name": "",
          "type": "uint256"
        }
      ],
      "stateMutability": "view",
      "type": "function"
    },
    {
      "inputs": [],
      "name": "owner",
      "outputs": [
        {
          "internalType": "address",
          "name": "",
          "type": "address"
        }
      ],
      "stateMutability": "view",
      "type": "function"
    },
    {
      "inputs": [],
      "name": "renounceOwnership",
      "outputs": [],
      "stateMutability": "nonpayable",
      "type": "function"
    },
    {
      "inputs": [],
      "name": "token",
      "outputs": [
        {
          "internalType": "contract IERC20",
          "name": "",
          "type": "address"
        }
      ],
      "stateMutability": "view",
      "type": "function"
    },
    {
      "inputs": [
        {
          "internalType": "address",
          "name": "newOwner",
          "type": "address"
        }
      ],
      "name": "transferOwnership",
      "outputs": [],
      "stateMutability": "nonpayable",
      "type": "function"
    },
    {
      "inputs": [
        {
          "internalType": "uint256",
          "name": "",
          "type": "uint256"
        }
      ],
      "name": "validMonths",
      "outputs": [
        {
          "internalType": "uint256",
          "name": "",
          "type": "uint256"
        }
      ],
      "stateMutability": "view",
      "type": "function"
    },
    {
      "inputs": [
        {
          "internalType": "uint256",
          "name": "depositIndex",
          "type": "uint256"
        }
      ],
      "name": "withdraw",
      "outputs": [],
      "stateMutability": "nonpayable",
      "type": "function"
    }
  ],
  "bytecode": "0x61018060405260006080908152600160a052600360c0819052600660e052600c61010052601261012052601861014052602461016052610040916008610169565b506040805161010081018252600a815260a06020820181905260be9282019290925261012260608201526101cc60808201819052918101919091526101d660c0820181905260e08201526100989060049060086101b9565b503480156100a557600080fd5b50604051610c15380380610c158339810160408190526100c49161020f565b33806100ea57604051631e4fbdf760e01b81526000600482015260240160405180910390fd5b6100f381610119565b50600180546001600160a01b0319166001600160a01b039290921691909117905561023f565b600080546001600160a01b038381166001600160a01b0319831681178455604051919092169283917f8be0079c531659141344cd1fd0a4f28419497f9722a3daafe3b4186f6b6457e09190a35050565b8280548282559060005260206000209081019282156101a9579160200282015b828111156101a9578251829060ff16905591602001919060010190610189565b506101b59291506101fa565b5090565b8280548282559060005260206000209081019282156101a9579160200282015b828111156101a9578251829061ffff169055916020019190600101906101d9565b5b808211156101b557600081556001016101fb565b60006020828403121561022157600080fd5b81516001600160a01b038116811461023857600080fd5b9392505050565b6109c78061024e6000396000f3fe608060405234801561001057600080fd5b50600436106100c95760003560e01c80639a4d8ba111610081578063e2bbb1581161005b578063e2bbb158146101ba578063f2fde38b146101cd578063fc0c546a146101e057600080fd5b80639a4d8ba11461016b578063cb85b9721461017e578063e289d1ef146101a757600080fd5b80632e1a7d4d116100b25780632e1a7d4d14610129578063715018a61461013e5780638da5cb5b1461014657600080fd5b80630c196a74146100ce5780632726b506146100f4575b600080fd5b6100e16100dc36600461084e565b6101f3565b6040519081526020015b60405180910390f35b610107610102366004610883565b61025c565b60408051948552602085019390935291830152151560608201526080016100eb565b61013c61013736600461084e565b6102c4565b005b61013c610511565b6000546001600160a01b03165b6040516001600160a01b0390911681526020016100eb565b6100e161017936600461084e565b610525565b6100e161018c3660046108ad565b6001600160a01b031660009081526002602052604090205490565b6100e16101b536600461084e565b610546565b61013c6101c83660046108cf565b610556565b61013c6101db3660046108ad565b610706565b600154610153906001600160a01b031681565b6000805b600354811015610253578260038281548110610215576102156108f1565b90600052602060002001540361024b5760048181548110610238576102386108f1565b9060005260206000200154915050919050565b6001016101f7565b50600092915050565b6001600160a01b0382166000908152600260205260408120805482918291829182918790811061028e5761028e6108f1565b60009182526020909120600490910201805460018201546002830154600390930154919a90995091975060ff1695509350505050565b3360009081526002602052604090205481106103275760405162461bcd60e51b815260206004820152600d60248201527f496e76616c696420696e6465780000000000000000000000000000000000000060448201526064015b60405180910390fd5b336000908152600260205260408120805483908110610348576103486108f1565b60009182526020909120600490910201600381015490915060ff16156103b05760405162461bcd60e51b815260206004820152601160248201527f416c72656164792077697468647261776e000000000000000000000000000000604482015260640161031e565b6000816002015462278d006103c5919061091d565b82600101546103d4919061093a565b9050804210156104265760405162461bcd60e51b815260206004820152601360248201527f4465706f736974206e6f74206d61747572656400000000000000000000000000604482015260640161031e565b60006103e861043884600201546101f3565b8454610444919061091d565b61044e919061094d565b60038401805460ff191660019081179091555484549192506001600160a01b03169063a9059cbb90339061048390859061093a565b6040517fffffffff0000000000000000000000000000000000000000000000000000000060e085901b1681526001600160a01b03909216600483015260248201526044016020604051808303816000875af11580156104e6573d6000803e3d6000fd5b505050506040513d601f19601f8201168201806040525081019061050a919061096f565b5050505050565b61051961075d565b61052360006107a3565b565b6004818154811061053557600080fd5b600091825260209091200154905081565b6003818154811061053557600080fd5b600082116105a65760405162461bcd60e51b815260206004820152601260248201527f416d6f756e74206d757374206265203e20300000000000000000000000000000604482015260640161031e565b6105af8161080b565b6105fb5760405162461bcd60e51b815260206004820152600e60248201527f496e76616c6964206d6f6e746873000000000000000000000000000000000000604482015260640161031e565b6001546040517f23b872dd000000000000000000000000000000000000000000000000000000008152336004820152306024820152604481018490526001600160a01b03909116906323b872dd906064016020604051808303816000875af115801561066b573d6000803e3d6000fd5b505050506040513d601f19601f8201168201806040525081019061068f919061096f565b503360009081526002602081815260408084208151608081018352968752428784019081529187019586526060870185815281546001808201845592875293909520965160049093029096019182555194810194909455915191830191909155516003909101805460ff1916911515919091179055565b61070e61075d565b6001600160a01b038116610751576040517f1e4fbdf70000000000000000000000000000000000000000000000000000000081526000600482015260240161031e565b61075a816107a3565b50565b6000546001600160a01b03163314610523576040517f118cdaa700000000000000000000000000000000000000000000000000000000815233600482015260240161031e565b600080546001600160a01b038381167fffffffffffffffffffffffff0000000000000000000000000000000000000000831681178455604051919092169283917f8be0079c531659141344cd1fd0a4f28419497f9722a3daafe3b4186f6b6457e09190a35050565b6000805b60035481101561025357826003828154811061082d5761082d6108f1565b9060005260206000200154036108465750600192915050565b60010161080f565b60006020828403121561086057600080fd5b5035919050565b80356001600160a01b038116811461087e57600080fd5b919050565b6000806040838503121561089657600080fd5b61089f83610867565b946020939093013593505050565b6000602082840312156108bf57600080fd5b6108c882610867565b9392505050565b600080604083850312156108e257600080fd5b50508035926020909101359150565b634e487b7160e01b600052603260045260246000fd5b634e487b7160e01b600052601160045260246000fd5b808202811582820484141761093457610934610907565b92915050565b8082018082111561093457610934610907565b60008261096a57634e487b7160e01b600052601260045260246000fd5b500490565b60006020828403121561098157600080fd5b815180151581146108c857600080fdfea2646970667358221220d3cb8e2ff8aa38d6fdeba457fad35aedbdae277d8ca738fe89bb2733a4aafa0a64736f6c63430008180033",
  "linkReferences": {},
  "deployedLinkReferences": {}
}