{
  "_format": "hh-sol-artifact-1",
  "contractName": "TwoTVDepositNoEarlyInterest",
  "sourceName": "contracts/TwoTVDepositNoEarlyInterest.sol",
  "abi": [
    {
      "inputs": [
        {
          "internalType": "contract IERC20",
          "name": "_token",
          "type": "address"
        }
      ],
      "stateMutability": "nonpayable",
      "type": "constructor"
    },
    {
      "inputs": [
        {
          "internalType": "address",
          "name": "owner",
          "type": "address"
        }
      ],
      "name": "OwnableInvalidOwner",
      "type": "error"
    },
    {
      "inputs": [
        {
          "internalType": "address",
          "name": "account",
          "type": "address"
        }
      ],
      "name": "OwnableUnauthorizedAccount",
      "type": "error"
    },
    {
      "anonymous": false,
      "inputs": [
        {
          "indexed": true,
          "internalType": "address",
          "name": "user",
          "type": "address"
        },
        {
          "indexed": false,
          "internalType": "uint256",
          "name": "amount",
          "type": "uint256"
        },
        {
          "indexed": false,
          "internalType": "uint256",
          "name": "months",
          "type": "uint256"
        }
      ],
      "name": "Deposited",
      "type": "event"
    },
    {
      "anonymous": false,
      "inputs": [
        {
          "indexed": true,
          "internalType": "address",
          "name": "previousOwner",
          "type": "address"
        },
        {
          "indexed": true,
          "internalType": "address",
          "name": "newOwner",
          "type": "address"
        }
      ],
      "name": "OwnershipTransferred",
      "type": "event"
    },
    {
      "anonymous": false,
      "inputs": [
        {
          "indexed": true,
          "internalType": "address",
          "name": "user",
          "type": "address"
        },
        {
          "indexed": false,
          "internalType": "uint256",
          "name": "index",
          "type": "uint256"
        },
        {
          "indexed": false,
          "internalType": "uint256",
          "name": "payout",
          "type": "uint256"
        },
        {
          "indexed": false,
          "internalType": "bool",
          "name": "matured",
          "type": "bool"
        }
      ],
      "name": "Withdrawn",
      "type": "event"
    },
    {
      "inputs": [],
      "name": "annualInterest",
      "outputs": [
        {
          "internalType": "uint256",
          "name": "",
          "type": "uint256"
        }
      ],
      "stateMutability": "view",
      "type": "function"
    },
    {
      "inputs": [],
      "name": "contractBalance",
      "outputs": [
        {
          "internalType": "uint256",
          "name": "",
          "type": "uint256"
        }
      ],
      "stateMutability": "view",
      "type": "function"
    },
    {
      "inputs": [
        {
          "internalType": "uint256",
          "name": "_amount",
          "type": "uint256"
        },
        {
          "internalType": "uint256",
          "name": "_months",
          "type": "uint256"
        }
      ],
      "name": "deposit",
      "outputs": [],
      "stateMutability": "nonpayable",
      "type": "function"
    },
    {
      "inputs": [
        {
          "internalType": "address",
          "name": "",
          "type": "address"
        },
        {
          "internalType": "uint256",
          "name": "",
          "type": "uint256"
        }
      ],
      "name": "deposits",
      "outputs": [
        {
          "internalType": "uint256",
          "name": "amount",
          "type": "uint256"
        },
        {
          "internalType": "uint256",
          "name": "startTime",
          "type": "uint256"
        },
        {
          "internalType": "uint256",
          "name": "months",
          "type": "uint256"
        },
        {
          "internalType": "bool",
          "name": "withdrawn",
          "type": "bool"
        }
      ],
      "stateMutability": "view",
      "type": "function"
    },
    {
      "inputs": [
        {
          "internalType": "address",
          "name": "user",
          "type": "address"
        }
      ],
      "name": "depositsLength",
      "outputs": [
        {
          "internalType": "uint256",
          "name": "",
          "type": "uint256"
        }
      ],
      "stateMutability": "view",
      "type": "function"
    },
    {
      "inputs": [
        {
          "internalType": "uint256",
          "name": "amount",
          "type": "uint256"
        }
      ],
      "name": "fundContract",
      "outputs": [],
      "stateMutability": "nonpayable",
      "type": "function"
    },
    {
      "inputs": [
        {
          "internalType": "address",
          "name": "user",
          "type": "address"
        },
        {
          "internalType": "uint256",
          "name": "index",
          "type": "uint256"
        }
      ],
      "name": "getDeposit",
      "outputs": [
        {
          "components": [
            {
              "internalType": "uint256",
              "name": "amount",
              "type": "uint256"
            },
            {
              "internalType": "uint256",
              "name": "startTime",
              "type": "uint256"
            },
            {
              "internalType": "uint256",
              "name": "months",
              "type": "uint256"
            },
            {
              "internalType": "bool",
              "name": "withdrawn",
              "type": "bool"
            }
          ],
          "internalType": "struct TwoTVDepositNoEarlyInterest.Deposit",
          "name": "",
          "type": "tuple"
        }
      ],
      "stateMutability": "view",
      "type": "function"
    },
    {
      "inputs": [],
      "name": "owner",
      "outputs": [
        {
          "internalType": "address",
          "name": "",
          "type": "address"
        }
      ],
      "stateMutability": "view",
      "type": "function"
    },
    {
      "inputs": [],
      "name": "renounceOwnership",
      "outputs": [],
      "stateMutability": "nonpayable",
      "type": "function"
    },
    {
      "inputs": [],
      "name": "token",
      "outputs": [
        {
          "internalType": "contract IERC20",
          "name": "",
          "type": "address"
        }
      ],
      "stateMutability": "view",
      "type": "function"
    },
    {
      "inputs": [
        {
          "internalType": "address",
          "name": "newOwner",
          "type": "address"
        }
      ],
      "name": "transferOwnership",
      "outputs": [],
      "stateMutability": "nonpayable",
      "type": "function"
    },
    {
      "inputs": [
        {
          "internalType": "uint256",
          "name": "index",
          "type": "uint256"
        }
      ],
      "name": "withdrawByIndex",
      "outputs": [],
      "stateMutability": "nonpayable",
      "type": "function"
    }
  ],
  "bytecode": "0x6080604052600a60035534801561001557600080fd5b50604051610dc9380380610dc9833981016040819052610034916100d9565b338061005a57604051631e4fbdf760e01b81526000600482015260240160405180910390fd5b61006381610089565b50600180546001600160a01b0319166001600160a01b0392909216919091179055610109565b600080546001600160a01b038381166001600160a01b0319831681178455604051919092169283917f8be0079c531659141344cd1fd0a4f28419497f9722a3daafe3b4186f6b6457e09190a35050565b6000602082840312156100eb57600080fd5b81516001600160a01b038116811461010257600080fd5b9392505050565b610cb1806101186000396000f3fe608060405234801561001057600080fd5b50600436106100d45760003560e01c8063cb85b97211610081578063e2bbb1581161005b578063e2bbb158146101fc578063f2fde38b1461020f578063fc0c546a1461022257600080fd5b8063cb85b9721461018b578063d6d68177146101b4578063e206e942146101e957600080fd5b80638b7afe2e116100b25780638b7afe2e146101475780638da5cb5b1461015d578063b2552fc41461018257600080fd5b80632726b506146100d95780633519a2f81461012a578063715018a61461013f575b600080fd5b6100ec6100e7366004610b2e565b610235565b604051610121919081518152602080830151908201526040808301519082015260609182015115159181019190915260800190565b60405180910390f35b61013d610138366004610b58565b6102db565b005b61013d61036a565b61014f61037e565b604051908152602001610121565b6000546001600160a01b03165b6040516001600160a01b039091168152602001610121565b61014f60035481565b61014f610199366004610b71565b6001600160a01b031660009081526002602052604090205490565b6101c76101c2366004610b2e565b6103f0565b6040805194855260208501939093529183015215156060820152608001610121565b61013d6101f7366004610b58565b610439565b61013d61020a366004610b93565b6107f8565b61013d61021d366004610b71565b610a10565b60015461016a906001600160a01b031681565b61026260405180608001604052806000815260200160008152602001600081526020016000151581525090565b6001600160a01b038316600090815260026020526040902080548390811061028c5761028c610bb5565b60009182526020918290206040805160808101825260049093029091018054835260018101549383019390935260028301549082015260039091015460ff161515606082015290505b92915050565b6102e3610a64565b6001546040516323b872dd60e01b8152336004820152306024820152604481018390526001600160a01b03909116906323b872dd906064016020604051808303816000875af115801561033a573d6000803e3d6000fd5b505050506040513d601f19601f8201168201806040525081019061035e9190610bcb565b61036757600080fd5b50565b610372610a64565b61037c6000610aaa565b565b6001546040516370a0823160e01b81523060048201526000916001600160a01b0316906370a0823190602401602060405180830381865afa1580156103c7573d6000803e3d6000fd5b505050506040513d601f19601f820116820180604052508101906103eb9190610bed565b905090565b6002602052816000526040600020818154811061040c57600080fd5b60009182526020909120600490910201805460018201546002830154600390930154919450925060ff1684565b33600090815260026020526040902054811061049c5760405162461bcd60e51b815260206004820152600d60248201527f496e76616c696420696e6465780000000000000000000000000000000000000060448201526064015b60405180910390fd5b3360009081526002602052604081208054839081106104bd576104bd610bb5565b60009182526020909120600490910201600381015490915060ff16156105255760405162461bcd60e51b815260206004820152601160248201527f416c72656164792077697468647261776e0000000000000000000000000000006044820152606401610493565b80546105735760405162461bcd60e51b815260206004820152600560248201527f456d7074790000000000000000000000000000000000000000000000000000006044820152606401610493565b805460018201546000906105879042610c1c565b90506000836002015462278d0061059e9190610c2f565b90508260008284106105f9576001905060006064600c8860020154600354896105c79190610c2f565b6105d19190610c2f565b6105db9190610c46565b6105e59190610c46565b90506105f18187610c68565b9250506105fd565b8491505b6001546040516370a0823160e01b81523060048201526000916001600160a01b0316906370a0823190602401602060405180830381865afa158015610646573d6000803e3d6000fd5b505050506040513d601f19601f8201168201806040525081019061066a9190610bed565b9050828110156106bc5760405162461bcd60e51b815260206004820152601460248201527f436f6e7472616374206c61636b732066756e64730000000000000000000000006044820152606401610493565b60038701805460ff1916600190811790915560008855546040517fa9059cbb000000000000000000000000000000000000000000000000000000008152336004820152602481018590526001600160a01b039091169063a9059cbb906044016020604051808303816000875af115801561073a573d6000803e3d6000fd5b505050506040513d601f19601f8201168201806040525081019061075e9190610bcb565b6107aa5760405162461bcd60e51b815260206004820152601560248201527f546f6b656e207472616e73666572206661696c656400000000000000000000006044820152606401610493565b604080518981526020810185905283151581830152905133917f217c645ce2c5eb2497bdb6d9400205f1253e8607b2aea960637fa705f2130401919081900360600190a25050505050505050565b600082116108485760405162461bcd60e51b815260206004820152600a60248201527f416d6f756e74203e2030000000000000000000000000000000000000000000006044820152606401610493565b600081116108985760405162461bcd60e51b815260206004820152600a60248201527f4d6f6e746873203e2030000000000000000000000000000000000000000000006044820152606401610493565b6001546040516323b872dd60e01b8152336004820152306024820152604481018490526001600160a01b03909116906323b872dd906064016020604051808303816000875af11580156108ef573d6000803e3d6000fd5b505050506040513d601f19601f820116820180604052508101906109139190610bcb565b61095f5760405162461bcd60e51b815260206004820152600f60248201527f5472616e73666572206661696c656400000000000000000000000000000000006044820152606401610493565b33600081815260026020818152604080842081516080810183528881524281850190815281840189815260608301888152845460018082018755958a52988790209351600490990290930197885590519287019290925590519385019390935591516003909301805460ff19169315159390931790925580518581529182018490527f73a19dd210f1a7f902193214c0ee91dd35ee5b4d920cba8d519eca65a7b488ca910160405180910390a25050565b610a18610a64565b6001600160a01b038116610a5b576040517f1e4fbdf700000000000000000000000000000000000000000000000000000000815260006004820152602401610493565b61036781610aaa565b6000546001600160a01b0316331461037c576040517f118cdaa7000000000000000000000000000000000000000000000000000000008152336004820152602401610493565b600080546001600160a01b038381167fffffffffffffffffffffffff0000000000000000000000000000000000000000831681178455604051919092169283917f8be0079c531659141344cd1fd0a4f28419497f9722a3daafe3b4186f6b6457e09190a35050565b80356001600160a01b0381168114610b2957600080fd5b919050565b60008060408385031215610b4157600080fd5b610b4a83610b12565b946020939093013593505050565b600060208284031215610b6a57600080fd5b5035919050565b600060208284031215610b8357600080fd5b610b8c82610b12565b9392505050565b60008060408385031215610ba657600080fd5b50508035926020909101359150565b634e487b7160e01b600052603260045260246000fd5b600060208284031215610bdd57600080fd5b81518015158114610b8c57600080fd5b600060208284031215610bff57600080fd5b5051919050565b634e487b7160e01b600052601160045260246000fd5b818103818111156102d5576102d5610c06565b80820281158282048414176102d5576102d5610c06565b600082610c6357634e487b7160e01b600052601260045260246000fd5b500490565b808201808211156102d5576102d5610c0656fea26469706673582212208f874fd7778eb106bfe9706ce6eca83e96b13c1aa532a52683738f7302c1f44864736f6c63430008180033",
  "linkReferences": {},
  "deployedLinkReferences": {}
}