{
  "_format": "hh-sol-artifact-1",
  "contractName": "TwoTV",
  "sourceName": "contracts/TwoTVToken.sol",
  "abi": [
    {
      "inputs": [
        {
          "internalType": "address",
          "name": "initialOwner",
          "type": "address"
        }
      ],
      "stateMutability": "nonpayable",
      "type": "constructor"
    },
    {
      "inputs": [
        {
          "internalType": "address",
          "name": "spender",
          "type": "address"
        },
        {
          "internalType": "uint256",
          "name": "allowance",
          "type": "uint256"
        },
        {
          "internalType": "uint256",
          "name": "needed",
          "type": "uint256"
        }
      ],
      "name": "ERC20InsufficientAllowance",
      "type": "error"
    },
    {
      "inputs": [
        {
          "internalType": "address",
          "name": "sender",
          "type": "address"
        },
        {
          "internalType": "uint256",
          "name": "balance",
          "type": "uint256"
        },
        {
          "internalType": "uint256",
          "name": "needed",
          "type": "uint256"
        }
      ],
      "name": "ERC20InsufficientBalance",
      "type": "error"
    },
    {
      "inputs": [
        {
          "internalType": "address",
          "name": "approver",
          "type": "address"
        }
      ],
      "name": "ERC20InvalidApprover",
      "type": "error"
    },
    {
      "inputs": [
        {
          "internalType": "address",
          "name": "receiver",
          "type": "address"
        }
      ],
      "name": "ERC20InvalidReceiver",
      "type": "error"
    },
    {
      "inputs": [
        {
          "internalType": "address",
          "name": "sender",
          "type": "address"
        }
      ],
      "name": "ERC20InvalidSender",
      "type": "error"
    },
    {
      "inputs": [
        {
          "internalType": "address",
          "name": "spender",
          "type": "address"
        }
      ],
      "name": "ERC20InvalidSpender",
      "type": "error"
    },
    {
      "inputs": [
        {
          "internalType": "address",
          "name": "owner",
          "type": "address"
        }
      ],
      "name": "OwnableInvalidOwner",
      "type": "error"
    },
    {
      "inputs": [
        {
          "internalType": "address",
          "name": "account",
          "type": "address"
        }
      ],
      "name": "OwnableUnauthorizedAccount",
      "type": "error"
    },
    {
      "anonymous": false,
      "inputs": [
        {
          "indexed": true,
          "internalType": "address",
          "name": "owner",
          "type": "address"
        },
        {
          "indexed": true,
          "internalType": "address",
          "name": "spender",
          "type": "address"
        },
        {
          "indexed": false,
          "internalType": "uint256",
          "name": "value",
          "type": "uint256"
        }
      ],
      "name": "Approval",
      "type": "event"
    },
    {
      "anonymous": false,
      "inputs": [
        {
          "indexed": true,
          "internalType": "address",
          "name": "previousOwner",
          "type": "address"
        },
        {
          "indexed": true,
          "internalType": "address",
          "name": "newOwner",
          "type": "address"
        }
      ],
      "name": "OwnershipTransferred",
      "type": "event"
    },
    {
      "anonymous": false,
      "inputs": [
        {
          "indexed": true,
          "internalType": "address",
          "name": "from",
          "type": "address"
        },
        {
          "indexed": true,
          "internalType": "address",
          "name": "to",
          "type": "address"
        },
        {
          "indexed": false,
          "internalType": "uint256",
          "name": "value",
          "type": "uint256"
        }
      ],
      "name": "Transfer",
      "type": "event"
    },
    {
      "inputs": [
        {
          "internalType": "address",
          "name": "owner",
          "type": "address"
        },
        {
          "internalType": "address",
          "name": "spender",
          "type": "address"
        }
      ],
      "name": "allowance",
      "outputs": [
        {
          "internalType": "uint256",
          "name": "",
          "type": "uint256"
        }
      ],
      "stateMutability": "view",
      "type": "function"
    },
    {
      "inputs": [
        {
          "internalType": "address",
          "name": "spender",
          "type": "address"
        },
        {
          "internalType": "uint256",
          "name": "value",
          "type": "uint256"
        }
      ],
      "name": "approve",
      "outputs": [
        {
          "internalType": "bool",
          "name": "",
          "type": "bool"
        }
      ],
      "stateMutability": "nonpayable",
      "type": "function"
    },
    {
      "inputs": [
        {
          "internalType": "address",
          "name": "account",
          "type": "address"
        }
      ],
      "name": "balanceOf",
      "outputs": [
        {
          "internalType": "uint256",
          "name": "",
          "type": "uint256"
        }
      ],
      "stateMutability": "view",
      "type": "function"
    },
    {
      "inputs": [
        {
          "internalType": "address",
          "name": "wallet",
          "type": "address"
        }
      ],
      "name": "balanceOfWallet",
      "outputs": [
        {
          "internalType": "uint256",
          "name": "",
          "type": "uint256"
        }
      ],
      "stateMutability": "view",
      "type": "function"
    },
    {
      "inputs": [],
      "name": "decimals",
      "outputs": [
        {
          "internalType": "uint8",
          "name": "",
          "type": "uint8"
        }
      ],
      "stateMutability": "view",
      "type": "function"
    },
    {
      "inputs": [],
      "name": "name",
      "outputs": [
        {
          "internalType": "string",
          "name": "",
          "type": "string"
        }
      ],
      "stateMutability": "view",
      "type": "function"
    },
    {
      "inputs": [],
      "name": "operationAddress",
      "outputs": [
        {
          "internalType": "address",
          "name": "",
          "type": "address"
        }
      ],
      "stateMutability": "view",
      "type": "function"
    },
    {
      "inputs": [],
      "name": "owner",
      "outputs": [
        {
          "internalType": "address",
          "name": "",
          "type": "address"
        }
      ],
      "stateMutability": "view",
      "type": "function"
    },
    {
      "inputs": [],
      "name": "renounceOwnership",
      "outputs": [],
      "stateMutability": "nonpayable",
      "type": "function"
    },
    {
      "inputs": [
        {
          "internalType": "address",
          "name": "_operationAddress",
          "type": "address"
        }
      ],
      "name": "setOperationAddress",
      "outputs": [],
      "stateMutability": "nonpayable",
      "type": "function"
    },
    {
      "inputs": [],
      "name": "symbol",
      "outputs": [
        {
          "internalType": "string",
          "name": "",
          "type": "string"
        }
      ],
      "stateMutability": "view",
      "type": "function"
    },
    {
      "inputs": [],
      "name": "totalSupply",
      "outputs": [
        {
          "internalType": "uint256",
          "name": "",
          "type": "uint256"
        }
      ],
      "stateMutability": "view",
      "type": "function"
    },
    {
      "inputs": [
        {
          "internalType": "address",
          "name": "to",
          "type": "address"
        },
        {
          "internalType": "uint256",
          "name": "value",
          "type": "uint256"
        }
      ],
      "name": "transfer",
      "outputs": [
        {
          "internalType": "bool",
          "name": "",
          "type": "bool"
        }
      ],
      "stateMutability": "nonpayable",
      "type": "function"
    },
    {
      "inputs": [
        {
          "internalType": "address",
          "name": "from",
          "type": "address"
        },
        {
          "internalType": "address",
          "name": "to",
          "type": "address"
        },
        {
          "internalType": "uint256",
          "name": "amount",
          "type": "uint256"
        }
      ],
      "name": "transferFrom",
      "outputs": [
        {
          "internalType": "bool",
          "name": "",
          "type": "bool"
        }
      ],
      "stateMutability": "nonpayable",
      "type": "function"
    },
    {
      "inputs": [
        {
          "internalType": "address",
          "name": "newOwner",
          "type": "address"
        }
      ],
      "name": "transferOwnership",
      "outputs": [],
      "stateMutability": "nonpayable",
      "type": "function"
    }
  ],
  "bytecode": "0x60806040523480156200001157600080fd5b506040516200103e3803806200103e8339810160408190526200003491620002c5565b8060405180604001604052806009815260200168192a2b102a37b5b2b760b91b81525060405180604001604052806003815260200162192a2b60e91b81525081600390816200008491906200039e565b5060046200009382826200039e565b5050506001600160a01b038116620000c657604051631e4fbdf760e01b8152600060048201526024015b60405180910390fd5b620000d18162000102565b50620000fb33620000e56012600a6200057f565b620000f5906305f5e10062000590565b62000154565b50620005c0565b600580546001600160a01b038381166001600160a01b0319831681179093556040519116919082907f8be0079c531659141344cd1fd0a4f28419497f9722a3daafe3b4186f6b6457e090600090a35050565b6001600160a01b038216620001805760405163ec442f0560e01b815260006004820152602401620000bd565b6200018e6000838362000192565b5050565b6001600160a01b038316620001c1578060026000828254620001b59190620005aa565b90915550620002359050565b6001600160a01b03831660009081526020819052604090205481811015620002165760405163391434e360e21b81526001600160a01b03851660048201526024810182905260448101839052606401620000bd565b6001600160a01b03841660009081526020819052604090209082900390555b6001600160a01b038216620002535760028054829003905562000272565b6001600160a01b03821660009081526020819052604090208054820190555b816001600160a01b0316836001600160a01b03167fddf252ad1be2c89b69c2b068fc378daa952ba7f163c4a11628f55a4df523b3ef83604051620002b891815260200190565b60405180910390a3505050565b600060208284031215620002d857600080fd5b81516001600160a01b0381168114620002f057600080fd5b9392505050565b634e487b7160e01b600052604160045260246000fd5b600181811c908216806200032257607f821691505b6020821081036200034357634e487b7160e01b600052602260045260246000fd5b50919050565b601f82111562000399576000816000526020600020601f850160051c81016020861015620003745750805b601f850160051c820191505b81811015620003955782815560010162000380565b5050505b505050565b81516001600160401b03811115620003ba57620003ba620002f7565b620003d281620003cb84546200030d565b8462000349565b602080601f8311600181146200040a5760008415620003f15750858301515b600019600386901b1c1916600185901b17855562000395565b600085815260208120601f198616915b828110156200043b578886015182559484019460019091019084016200041a565b50858210156200045a5787850151600019600388901b60f8161c191681555b5050505050600190811b01905550565b634e487b7160e01b600052601160045260246000fd5b600181815b80851115620004c1578160001904821115620004a557620004a56200046a565b80851615620004b357918102915b93841c939080029062000485565b509250929050565b600082620004da5750600162000579565b81620004e95750600062000579565b81600181146200050257600281146200050d576200052d565b600191505062000579565b60ff8411156200052157620005216200046a565b50506001821b62000579565b5060208310610133831016604e8410600b841016171562000552575081810a62000579565b6200055e838362000480565b80600019048211156200057557620005756200046a565b0290505b92915050565b6000620002f060ff841683620004c9565b80820281158282048414176200057957620005796200046a565b808201808211156200057957620005796200046a565b610a6e80620005d06000396000f3fe608060405234801561001057600080fd5b50600436106100f55760003560e01c8063715018a611610097578063a9059cbb11610066578063a9059cbb146101f5578063d53ce95614610208578063dd62ed3e1461021b578063f2fde38b1461022e57600080fd5b8063715018a6146101ab5780638da5cb5b146101b557806395d89b41146101da578063a441c302146101e257600080fd5b806323b86fbe116100d357806323b86fbe1461014d57806323b872dd14610160578063313ce5671461017357806370a082311461018257600080fd5b806306fdde03146100fa578063095ea7b31461011857806318160ddd1461013b575b600080fd5b610102610241565b60405161010f91906108be565b60405180910390f35b61012b610126366004610929565b6102d3565b604051901515815260200161010f565b6002545b60405190815260200161010f565b61013f61015b366004610953565b6102ed565b61012b61016e36600461096e565b61030b565b6040516012815260200161010f565b61013f610190366004610953565b6001600160a01b031660009081526020819052604090205490565b6101b3610367565b005b6005546001600160a01b03165b6040516001600160a01b03909116815260200161010f565b61010261037b565b6006546101c2906001600160a01b031681565b61012b610203366004610929565b61038a565b6101b3610216366004610953565b610398565b61013f6102293660046109aa565b6103cf565b6101b361023c366004610953565b610432565b606060038054610250906109dd565b80601f016020809104026020016040519081016040528092919081815260200182805461027c906109dd565b80156102c95780601f1061029e576101008083540402835291602001916102c9565b820191906000526020600020905b8154815290600101906020018083116102ac57829003601f168201915b5050505050905090565b6000336102e181858561048e565b60019150505b92915050565b6001600160a01b0381166000908152602081905260408120546102e7565b60065460009033906001600160a01b03161580159061033757506006546001600160a01b038281169116145b15610351576103478585856104a0565b6001915050610360565b61035c858585610531565b9150505b9392505050565b61036f610555565b610379600061059b565b565b606060048054610250906109dd565b6000336102e18185856104a0565b6103a0610555565b6006805473ffffffffffffffffffffffffffffffffffffffff19166001600160a01b0392909216919091179055565b6006546000906001600160a01b0316158015906103f957506006546001600160a01b038381169116145b1561040757506000196102e7565b6001600160a01b03808416600090815260016020908152604080832093861683529290522054610360565b61043a610555565b6001600160a01b038116610482576040517f1e4fbdf7000000000000000000000000000000000000000000000000000000008152600060048201526024015b60405180910390fd5b61048b8161059b565b50565b61049b83838360016105fa565b505050565b6001600160a01b0383166104e3576040517f96c6fd1e00000000000000000000000000000000000000000000000000000000815260006004820152602401610479565b6001600160a01b038216610526576040517fec442f0500000000000000000000000000000000000000000000000000000000815260006004820152602401610479565b61049b838383610702565b60003361053f858285610845565b61054a8585856104a0565b506001949350505050565b6005546001600160a01b03163314610379576040517f118cdaa7000000000000000000000000000000000000000000000000000000008152336004820152602401610479565b600580546001600160a01b0383811673ffffffffffffffffffffffffffffffffffffffff19831681179093556040519116919082907f8be0079c531659141344cd1fd0a4f28419497f9722a3daafe3b4186f6b6457e090600090a35050565b6001600160a01b03841661063d576040517fe602df0500000000000000000000000000000000000000000000000000000000815260006004820152602401610479565b6001600160a01b038316610680576040517f94280d6200000000000000000000000000000000000000000000000000000000815260006004820152602401610479565b6001600160a01b03808516600090815260016020908152604080832093871683529290522082905580156106fc57826001600160a01b0316846001600160a01b03167f8c5be1e5ebec7d5bd14f71427d1e84f3dd0314c0f7b2291e5b200ac8c7c3b925846040516106f391815260200190565b60405180910390a35b50505050565b6001600160a01b03831661072d5780600260008282546107229190610a17565b909155506107b89050565b6001600160a01b03831660009081526020819052604090205481811015610799576040517fe450d38c0000000000000000000000000000000000000000000000000000000081526001600160a01b03851660048201526024810182905260448101839052606401610479565b6001600160a01b03841660009081526020819052604090209082900390555b6001600160a01b0382166107d4576002805482900390556107f3565b6001600160a01b03821660009081526020819052604090208054820190555b816001600160a01b0316836001600160a01b03167fddf252ad1be2c89b69c2b068fc378daa952ba7f163c4a11628f55a4df523b3ef8360405161083891815260200190565b60405180910390a3505050565b600061085184846103cf565b905060001981146106fc57818110156108af576040517ffb8f41b20000000000000000000000000000000000000000000000000000000081526001600160a01b03841660048201526024810182905260448101839052606401610479565b6106fc848484840360006105fa565b60006020808352835180602085015260005b818110156108ec578581018301518582016040015282016108d0565b506000604082860101526040601f19601f8301168501019250505092915050565b80356001600160a01b038116811461092457600080fd5b919050565b6000806040838503121561093c57600080fd5b6109458361090d565b946020939093013593505050565b60006020828403121561096557600080fd5b6103608261090d565b60008060006060848603121561098357600080fd5b61098c8461090d565b925061099a6020850161090d565b9150604084013590509250925092565b600080604083850312156109bd57600080fd5b6109c68361090d565b91506109d46020840161090d565b90509250929050565b600181811c908216806109f157607f821691505b602082108103610a1157634e487b7160e01b600052602260045260246000fd5b50919050565b808201808211156102e757634e487b7160e01b600052601160045260246000fdfea2646970667358221220961c2185f94348fbb81f7e04f32be47e095599b3943c37f6bb8535bfc5e26e9b64736f6c63430008180033",
  "linkReferences": {},
  "deployedLinkReferences": {}
}