{
  "_format": "hh-sol-artifact-1",
  "contractName": "TwoUSD",
  "sourceName": "contracts/TwoTVUSDToken.sol",
  "abi": [
    {
      "inputs": [
        {
          "internalType": "address",
          "name": "initialOwner",
          "type": "address"
        }
      ],
      "stateMutability": "nonpayable",
      "type": "constructor"
    },
    {
      "inputs": [
        {
          "internalType": "address",
          "name": "spender",
          "type": "address"
        },
        {
          "internalType": "uint256",
          "name": "allowance",
          "type": "uint256"
        },
        {
          "internalType": "uint256",
          "name": "needed",
          "type": "uint256"
        }
      ],
      "name": "ERC20InsufficientAllowance",
      "type": "error"
    },
    {
      "inputs": [
        {
          "internalType": "address",
          "name": "sender",
          "type": "address"
        },
        {
          "internalType": "uint256",
          "name": "balance",
          "type": "uint256"
        },
        {
          "internalType": "uint256",
          "name": "needed",
          "type": "uint256"
        }
      ],
      "name": "ERC20InsufficientBalance",
      "type": "error"
    },
    {
      "inputs": [
        {
          "internalType": "address",
          "name": "approver",
          "type": "address"
        }
      ],
      "name": "ERC20InvalidApprover",
      "type": "error"
    },
    {
      "inputs": [
        {
          "internalType": "address",
          "name": "receiver",
          "type": "address"
        }
      ],
      "name": "ERC20InvalidReceiver",
      "type": "error"
    },
    {
      "inputs": [
        {
          "internalType": "address",
          "name": "sender",
          "type": "address"
        }
      ],
      "name": "ERC20InvalidSender",
      "type": "error"
    },
    {
      "inputs": [
        {
          "internalType": "address",
          "name": "spender",
          "type": "address"
        }
      ],
      "name": "ERC20InvalidSpender",
      "type": "error"
    },
    {
      "inputs": [
        {
          "internalType": "address",
          "name": "owner",
          "type": "address"
        }
      ],
      "name": "OwnableInvalidOwner",
      "type": "error"
    },
    {
      "inputs": [
        {
          "internalType": "address",
          "name": "account",
          "type": "address"
        }
      ],
      "name": "OwnableUnauthorizedAccount",
      "type": "error"
    },
    {
      "anonymous": false,
      "inputs": [
        {
          "indexed": true,
          "internalType": "address",
          "name": "owner",
          "type": "address"
        },
        {
          "indexed": true,
          "internalType": "address",
          "name": "spender",
          "type": "address"
        },
        {
          "indexed": false,
          "internalType": "uint256",
          "name": "value",
          "type": "uint256"
        }
      ],
      "name": "Approval",
      "type": "event"
    },
    {
      "anonymous": false,
      "inputs": [
        {
          "indexed": true,
          "internalType": "address",
          "name": "previousOwner",
          "type": "address"
        },
        {
          "indexed": true,
          "internalType": "address",
          "name": "newOwner",
          "type": "address"
        }
      ],
      "name": "OwnershipTransferred",
      "type": "event"
    },
    {
      "anonymous": false,
      "inputs": [
        {
          "indexed": true,
          "internalType": "address",
          "name": "from",
          "type": "address"
        },
        {
          "indexed": true,
          "internalType": "address",
          "name": "to",
          "type": "address"
        },
        {
          "indexed": false,
          "internalType": "uint256",
          "name": "value",
          "type": "uint256"
        }
      ],
      "name": "Transfer",
      "type": "event"
    },
    {
      "inputs": [
        {
          "internalType": "address",
          "name": "owner",
          "type": "address"
        },
        {
          "internalType": "address",
          "name": "spender",
          "type": "address"
        }
      ],
      "name": "allowance",
      "outputs": [
        {
          "internalType": "uint256",
          "name": "",
          "type": "uint256"
        }
      ],
      "stateMutability": "view",
      "type": "function"
    },
    {
      "inputs": [
        {
          "internalType": "address",
          "name": "spender",
          "type": "address"
        },
        {
          "internalType": "uint256",
          "name": "value",
          "type": "uint256"
        }
      ],
      "name": "approve",
      "outputs": [
        {
          "internalType": "bool",
          "name": "",
          "type": "bool"
        }
      ],
      "stateMutability": "nonpayable",
      "type": "function"
    },
    {
      "inputs": [
        {
          "internalType": "address",
          "name": "account",
          "type": "address"
        }
      ],
      "name": "balanceOf",
      "outputs": [
        {
          "internalType": "uint256",
          "name": "",
          "type": "uint256"
        }
      ],
      "stateMutability": "view",
      "type": "function"
    },
    {
      "inputs": [],
      "name": "decimals",
      "outputs": [
        {
          "internalType": "uint8",
          "name": "",
          "type": "uint8"
        }
      ],
      "stateMutability": "pure",
      "type": "function"
    },
    {
      "inputs": [],
      "name": "name",
      "outputs": [
        {
          "internalType": "string",
          "name": "",
          "type": "string"
        }
      ],
      "stateMutability": "view",
      "type": "function"
    },
    {
      "inputs": [],
      "name": "operationAddress",
      "outputs": [
        {
          "internalType": "address",
          "name": "",
          "type": "address"
        }
      ],
      "stateMutability": "view",
      "type": "function"
    },
    {
      "inputs": [],
      "name": "owner",
      "outputs": [
        {
          "internalType": "address",
          "name": "",
          "type": "address"
        }
      ],
      "stateMutability": "view",
      "type": "function"
    },
    {
      "inputs": [],
      "name": "renounceOwnership",
      "outputs": [],
      "stateMutability": "nonpayable",
      "type": "function"
    },
    {
      "inputs": [
        {
          "internalType": "address",
          "name": "_operationAddress",
          "type": "address"
        }
      ],
      "name": "setOperationAddress",
      "outputs": [],
      "stateMutability": "nonpayable",
      "type": "function"
    },
    {
      "inputs": [],
      "name": "symbol",
      "outputs": [
        {
          "internalType": "string",
          "name": "",
          "type": "string"
        }
      ],
      "stateMutability": "view",
      "type": "function"
    },
    {
      "inputs": [],
      "name": "totalSupply",
      "outputs": [
        {
          "internalType": "uint256",
          "name": "",
          "type": "uint256"
        }
      ],
      "stateMutability": "view",
      "type": "function"
    },
    {
      "inputs": [
        {
          "internalType": "address",
          "name": "to",
          "type": "address"
        },
        {
          "internalType": "uint256",
          "name": "value",
          "type": "uint256"
        }
      ],
      "name": "transfer",
      "outputs": [
        {
          "internalType": "bool",
          "name": "",
          "type": "bool"
        }
      ],
      "stateMutability": "nonpayable",
      "type": "function"
    },
    {
      "inputs": [
        {
          "internalType": "address",
          "name": "from",
          "type": "address"
        },
        {
          "internalType": "address",
          "name": "to",
          "type": "address"
        },
        {
          "internalType": "uint256",
          "name": "value",
          "type": "uint256"
        }
      ],
      "name": "transferFrom",
      "outputs": [
        {
          "internalType": "bool",
          "name": "",
          "type": "bool"
        }
      ],
      "stateMutability": "nonpayable",
      "type": "function"
    },
    {
      "inputs": [
        {
          "internalType": "address",
          "name": "newOwner",
          "type": "address"
        }
      ],
      "name": "transferOwnership",
      "outputs": [],
      "stateMutability": "nonpayable",
      "type": "function"
    }
  ],
  "bytecode": "0x60806040523480156200001157600080fd5b5060405162000fc338038062000fc38339810160408190526200003491620002c6565b80604051806040016040528060078152602001660c9515881554d160ca1b815250604051806040016040528060068152602001650c95159554d160d21b81525081600390816200008591906200039f565b5060046200009482826200039f565b5050506001600160a01b038116620000c757604051631e4fbdf760e01b8152600060048201526024015b60405180910390fd5b620000d28162000103565b50620000fc33620000e66006600a62000580565b620000f6906305f5e10062000591565b62000155565b50620005c1565b600580546001600160a01b038381166001600160a01b0319831681179093556040519116919082907f8be0079c531659141344cd1fd0a4f28419497f9722a3daafe3b4186f6b6457e090600090a35050565b6001600160a01b038216620001815760405163ec442f0560e01b815260006004820152602401620000be565b6200018f6000838362000193565b5050565b6001600160a01b038316620001c2578060026000828254620001b69190620005ab565b90915550620002369050565b6001600160a01b03831660009081526020819052604090205481811015620002175760405163391434e360e21b81526001600160a01b03851660048201526024810182905260448101839052606401620000be565b6001600160a01b03841660009081526020819052604090209082900390555b6001600160a01b038216620002545760028054829003905562000273565b6001600160a01b03821660009081526020819052604090208054820190555b816001600160a01b0316836001600160a01b03167fddf252ad1be2c89b69c2b068fc378daa952ba7f163c4a11628f55a4df523b3ef83604051620002b991815260200190565b60405180910390a3505050565b600060208284031215620002d957600080fd5b81516001600160a01b0381168114620002f157600080fd5b9392505050565b634e487b7160e01b600052604160045260246000fd5b600181811c908216806200032357607f821691505b6020821081036200034457634e487b7160e01b600052602260045260246000fd5b50919050565b601f8211156200039a576000816000526020600020601f850160051c81016020861015620003755750805b601f850160051c820191505b81811015620003965782815560010162000381565b5050505b505050565b81516001600160401b03811115620003bb57620003bb620002f8565b620003d381620003cc84546200030e565b846200034a565b602080601f8311600181146200040b5760008415620003f25750858301515b600019600386901b1c1916600185901b17855562000396565b600085815260208120601f198616915b828110156200043c578886015182559484019460019091019084016200041b565b50858210156200045b5787850151600019600388901b60f8161c191681555b5050505050600190811b01905550565b634e487b7160e01b600052601160045260246000fd5b600181815b80851115620004c2578160001904821115620004a657620004a66200046b565b80851615620004b457918102915b93841c939080029062000486565b509250929050565b600082620004db575060016200057a565b81620004ea575060006200057a565b81600181146200050357600281146200050e576200052e565b60019150506200057a565b60ff8411156200052257620005226200046b565b50506001821b6200057a565b5060208310610133831016604e8410600b841016171562000553575081810a6200057a565b6200055f838362000481565b80600019048211156200057657620005766200046b565b0290505b92915050565b6000620002f160ff841683620004ca565b80820281158282048414176200057a576200057a6200046b565b808201808211156200057a576200057a6200046b565b6109f280620005d16000396000f3fe608060405234801561001057600080fd5b50600436106100ea5760003560e01c80638da5cb5b1161008c578063a9059cbb11610066578063a9059cbb146101d7578063d53ce956146101ea578063dd62ed3e146101fd578063f2fde38b1461021057600080fd5b80638da5cb5b1461019757806395d89b41146101bc578063a441c302146101c457600080fd5b806323b872dd116100c857806323b872dd14610142578063313ce5671461015557806370a0823114610164578063715018a61461018d57600080fd5b806306fdde03146100ef578063095ea7b31461010d57806318160ddd14610130575b600080fd5b6100f7610223565b6040516101049190610842565b60405180910390f35b61012061011b3660046108ad565b6102b5565b6040519015158152602001610104565b6002545b604051908152602001610104565b6101206101503660046108d7565b6102cf565b60405160068152602001610104565b610134610172366004610913565b6001600160a01b031660009081526020819052604090205490565b6101956102f3565b005b6005546001600160a01b03165b6040516001600160a01b039091168152602001610104565b6100f7610307565b6006546101a4906001600160a01b031681565b6101206101e53660046108ad565b610316565b6101956101f8366004610913565b610324565b61013461020b36600461092e565b61035b565b61019561021e366004610913565b6103d5565b60606003805461023290610961565b80601f016020809104026020016040519081016040528092919081815260200182805461025e90610961565b80156102ab5780601f10610280576101008083540402835291602001916102ab565b820191906000526020600020905b81548152906001019060200180831161028e57829003601f168201915b5050505050905090565b6000336102c3818585610431565b60019150505b92915050565b6000336102dd858285610443565b6102e88585856104c2565b506001949350505050565b6102fb610553565b6103056000610599565b565b60606004805461023290610961565b6000336102c38185856104c2565b61032c610553565b6006805473ffffffffffffffffffffffffffffffffffffffff19166001600160a01b0392909216919091179055565b6006546000906001600160a01b03161580159061038557506006546001600160a01b038381169116145b801561039957506001600160a01b03831632145b156103a757506000196102c9565b6001600160a01b038084166000908152600160209081526040808320938616835292905220545b9392505050565b6103dd610553565b6001600160a01b038116610425576040517f1e4fbdf7000000000000000000000000000000000000000000000000000000008152600060048201526024015b60405180910390fd5b61042e81610599565b50565b61043e83838360016105f8565b505050565b600061044f848461035b565b905060001981146104bc57818110156104ad576040517ffb8f41b20000000000000000000000000000000000000000000000000000000081526001600160a01b0384166004820152602481018290526044810183905260640161041c565b6104bc848484840360006105f8565b50505050565b6001600160a01b038316610505576040517f96c6fd1e0000000000000000000000000000000000000000000000000000000081526000600482015260240161041c565b6001600160a01b038216610548576040517fec442f050000000000000000000000000000000000000000000000000000000081526000600482015260240161041c565b61043e8383836106ff565b6005546001600160a01b03163314610305576040517f118cdaa700000000000000000000000000000000000000000000000000000000815233600482015260240161041c565b600580546001600160a01b0383811673ffffffffffffffffffffffffffffffffffffffff19831681179093556040519116919082907f8be0079c531659141344cd1fd0a4f28419497f9722a3daafe3b4186f6b6457e090600090a35050565b6001600160a01b03841661063b576040517fe602df050000000000000000000000000000000000000000000000000000000081526000600482015260240161041c565b6001600160a01b03831661067e576040517f94280d620000000000000000000000000000000000000000000000000000000081526000600482015260240161041c565b6001600160a01b03808516600090815260016020908152604080832093871683529290522082905580156104bc57826001600160a01b0316846001600160a01b03167f8c5be1e5ebec7d5bd14f71427d1e84f3dd0314c0f7b2291e5b200ac8c7c3b925846040516106f191815260200190565b60405180910390a350505050565b6001600160a01b03831661072a57806002600082825461071f919061099b565b909155506107b59050565b6001600160a01b03831660009081526020819052604090205481811015610796576040517fe450d38c0000000000000000000000000000000000000000000000000000000081526001600160a01b0385166004820152602481018290526044810183905260640161041c565b6001600160a01b03841660009081526020819052604090209082900390555b6001600160a01b0382166107d1576002805482900390556107f0565b6001600160a01b03821660009081526020819052604090208054820190555b816001600160a01b0316836001600160a01b03167fddf252ad1be2c89b69c2b068fc378daa952ba7f163c4a11628f55a4df523b3ef8360405161083591815260200190565b60405180910390a3505050565b60006020808352835180602085015260005b8181101561087057858101830151858201604001528201610854565b506000604082860101526040601f19601f8301168501019250505092915050565b80356001600160a01b03811681146108a857600080fd5b919050565b600080604083850312156108c057600080fd5b6108c983610891565b946020939093013593505050565b6000806000606084860312156108ec57600080fd5b6108f584610891565b925061090360208501610891565b9150604084013590509250925092565b60006020828403121561092557600080fd5b6103ce82610891565b6000806040838503121561094157600080fd5b61094a83610891565b915061095860208401610891565b90509250929050565b600181811c9082168061097557607f821691505b60208210810361099557634e487b7160e01b600052602260045260246000fd5b50919050565b808201808211156102c957634e487b7160e01b600052601160045260246000fdfea26469706673582212202dadde1695002c97600928e5a4325bc92a42b89c1ff62188e3743ffdd908bcb264736f6c63430008180033",
  "linkReferences": {},
  "deployedLinkReferences": {}
}