{
  "_format": "hh-sol-artifact-1",
  "contractName": "NFTMarketplace",
  "sourceName": "contracts/NFTMarketplace.sol",
  "abi": [
    {
      "inputs": [],
      "stateMutability": "nonpayable",
      "type": "constructor"
    },
    {
      "inputs": [
        {
          "internalType": "address",
          "name": "owner",
          "type": "address"
        }
      ],
      "name": "OwnableInvalidOwner",
      "type": "error"
    },
    {
      "inputs": [
        {
          "internalType": "address",
          "name": "account",
          "type": "address"
        }
      ],
      "name": "OwnableUnauthorizedAccount",
      "type": "error"
    },
    {
      "inputs": [],
      "name": "ReentrancyGuardReentrantCall",
      "type": "error"
    },
    {
      "anonymous": false,
      "inputs": [
        {
          "indexed": true,
          "internalType": "uint256",
          "name": "listingId",
          "type": "uint256"
        },
        {
          "indexed": true,
          "internalType": "address",
          "name": "seller",
          "type": "address"
        },
        {
          "indexed": true,
          "internalType": "address",
          "name": "nftContract",
          "type": "address"
        },
        {
          "indexed": false,
          "internalType": "uint256",
          "name": "tokenId",
          "type": "uint256"
        },
        {
          "indexed": false,
          "internalType": "uint256",
          "name": "price",
          "type": "uint256"
        }
      ],
      "name": "NFTListed",
      "type": "event"
    },
    {
      "anonymous": false,
      "inputs": [
        {
          "indexed": true,
          "internalType": "uint256",
          "name": "listingId",
          "type": "uint256"
        },
        {
          "indexed": false,
          "internalType": "uint256",
          "name": "oldPrice",
          "type": "uint256"
        },
        {
          "indexed": false,
          "internalType": "uint256",
          "name": "newPrice",
          "type": "uint256"
        }
      ],
      "name": "NFTPriceUpdated",
      "type": "event"
    },
    {
      "anonymous": false,
      "inputs": [
        {
          "indexed": true,
          "internalType": "uint256",
          "name": "listingId",
          "type": "uint256"
        },
        {
          "indexed": true,
          "internalType": "address",
          "name": "seller",
          "type": "address"
        },
        {
          "indexed": true,
          "internalType": "address",
          "name": "buyer",
          "type": "address"
        },
        {
          "indexed": false,
          "internalType": "address",
          "name": "nftContract",
          "type": "address"
        },
        {
          "indexed": false,
          "internalType": "uint256",
          "name": "tokenId",
          "type": "uint256"
        },
        {
          "indexed": false,
          "internalType": "uint256",
          "name": "price",
          "type": "uint256"
        },
        {
          "indexed": false,
          "internalType": "uint256",
          "name": "fee",
          "type": "uint256"
        }
      ],
      "name": "NFTSold",
      "type": "event"
    },
    {
      "anonymous": false,
      "inputs": [
        {
          "indexed": true,
          "internalType": "uint256",
          "name": "listingId",
          "type": "uint256"
        },
        {
          "indexed": true,
          "internalType": "address",
          "name": "seller",
          "type": "address"
        },
        {
          "indexed": true,
          "internalType": "address",
          "name": "nftContract",
          "type": "address"
        },
        {
          "indexed": false,
          "internalType": "uint256",
          "name": "tokenId",
          "type": "uint256"
        }
      ],
      "name": "NFTUnlisted",
      "type": "event"
    },
    {
      "anonymous": false,
      "inputs": [
        {
          "indexed": true,
          "internalType": "address",
          "name": "previousOwner",
          "type": "address"
        },
        {
          "indexed": true,
          "internalType": "address",
          "name": "newOwner",
          "type": "address"
        }
      ],
      "name": "OwnershipTransferred",
      "type": "event"
    },
    {
      "inputs": [],
      "name": "FEE_DENOMINATOR",
      "outputs": [
        {
          "internalType": "uint256",
          "name": "",
          "type": "uint256"
        }
      ],
      "stateMutability": "view",
      "type": "function"
    },
    {
      "inputs": [],
      "name": "FEE_PERCENT",
      "outputs": [
        {
          "internalType": "uint256",
          "name": "",
          "type": "uint256"
        }
      ],
      "stateMutability": "view",
      "type": "function"
    },
    {
      "inputs": [
        {
          "internalType": "uint256",
          "name": "_listingId",
          "type": "uint256"
        }
      ],
      "name": "buyNFT",
      "outputs": [],
      "stateMutability": "payable",
      "type": "function"
    },
    {
      "inputs": [],
      "name": "feesCollected",
      "outputs": [
        {
          "internalType": "uint256",
          "name": "",
          "type": "uint256"
        }
      ],
      "stateMutability": "view",
      "type": "function"
    },
    {
      "inputs": [],
      "name": "getActiveListings",
      "outputs": [
        {
          "internalType": "uint256[]",
          "name": "",
          "type": "uint256[]"
        }
      ],
      "stateMutability": "view",
      "type": "function"
    },
    {
      "inputs": [
        {
          "internalType": "uint256",
          "name": "_listingId",
          "type": "uint256"
        }
      ],
      "name": "getListing",
      "outputs": [
        {
          "components": [
            {
              "internalType": "address",
              "name": "seller",
              "type": "address"
            },
            {
              "internalType": "address",
              "name": "nftContract",
              "type": "address"
            },
            {
              "internalType": "uint256",
              "name": "tokenId",
              "type": "uint256"
            },
            {
              "internalType": "uint256",
              "name": "price",
              "type": "uint256"
            },
            {
              "internalType": "bool",
              "name": "active",
              "type": "bool"
            },
            {
              "internalType": "uint256",
              "name": "listedTime",
              "type": "uint256"
            }
          ],
          "internalType": "struct NFTMarketplace.Listing",
          "name": "",
          "type": "tuple"
        }
      ],
      "stateMutability": "view",
      "type": "function"
    },
    {
      "inputs": [
        {
          "internalType": "address",
          "name": "_nftContract",
          "type": "address"
        },
        {
          "internalType": "uint256",
          "name": "_tokenId",
          "type": "uint256"
        }
      ],
      "name": "getListingByNFT",
      "outputs": [
        {
          "internalType": "uint256",
          "name": "",
          "type": "uint256"
        }
      ],
      "stateMutability": "view",
      "type": "function"
    },
    {
      "inputs": [
        {
          "internalType": "address",
          "name": "_nftContract",
          "type": "address"
        },
        {
          "internalType": "uint256",
          "name": "_tokenId",
          "type": "uint256"
        },
        {
          "internalType": "uint256",
          "name": "_price",
          "type": "uint256"
        }
      ],
      "name": "listNFT",
      "outputs": [],
      "stateMutability": "nonpayable",
      "type": "function"
    },
    {
      "inputs": [],
      "name": "listingCount",
      "outputs": [
        {
          "internalType": "uint256",
          "name": "",
          "type": "uint256"
        }
      ],
      "stateMutability": "view",
      "type": "function"
    },
    {
      "inputs": [
        {
          "internalType": "uint256",
          "name": "",
          "type": "uint256"
        }
      ],
      "name": "listings",
      "outputs": [
        {
          "internalType": "address",
          "name": "seller",
          "type": "address"
        },
        {
          "internalType": "address",
          "name": "nftContract",
          "type": "address"
        },
        {
          "internalType": "uint256",
          "name": "tokenId",
          "type": "uint256"
        },
        {
          "internalType": "uint256",
          "name": "price",
          "type": "uint256"
        },
        {
          "internalType": "bool",
          "name": "active",
          "type": "bool"
        },
        {
          "internalType": "uint256",
          "name": "listedTime",
          "type": "uint256"
        }
      ],
      "stateMutability": "view",
      "type": "function"
    },
    {
      "inputs": [],
      "name": "owner",
      "outputs": [
        {
          "internalType": "address",
          "name": "",
          "type": "address"
        }
      ],
      "stateMutability": "view",
      "type": "function"
    },
    {
      "inputs": [],
      "name": "renounceOwnership",
      "outputs": [],
      "stateMutability": "nonpayable",
      "type": "function"
    },
    {
      "inputs": [
        {
          "internalType": "address",
          "name": "",
          "type": "address"
        },
        {
          "internalType": "uint256",
          "name": "",
          "type": "uint256"
        }
      ],
      "name": "tokenListingId",
      "outputs": [
        {
          "internalType": "uint256",
          "name": "",
          "type": "uint256"
        }
      ],
      "stateMutability": "view",
      "type": "function"
    },
    {
      "inputs": [
        {
          "internalType": "address",
          "name": "newOwner",
          "type": "address"
        }
      ],
      "name": "transferOwnership",
      "outputs": [],
      "stateMutability": "nonpayable",
      "type": "function"
    },
    {
      "inputs": [
        {
          "internalType": "uint256",
          "name": "_listingId",
          "type": "uint256"
        }
      ],
      "name": "unlistNFT",
      "outputs": [],
      "stateMutability": "nonpayable",
      "type": "function"
    },
    {
      "inputs": [
        {
          "internalType": "uint256",
          "name": "_listingId",
          "type": "uint256"
        },
        {
          "internalType": "uint256",
          "name": "_newPrice",
          "type": "uint256"
        }
      ],
      "name": "updatePrice",
      "outputs": [],
      "stateMutability": "nonpayable",
      "type": "function"
    },
    {
      "inputs": [],
      "name": "withdrawFees",
      "outputs": [],
      "stateMutability": "nonpayable",
      "type": "function"
    },
    {
      "stateMutability": "payable",
      "type": "receive"
    }
  ],
  "bytecode": "0x608060405234801561001057600080fd5b50338061003757604051631e4fbdf760e01b81526000600482015260240160405180910390fd5b6100408161004a565b506001805561009a565b600080546001600160a01b038381166001600160a01b0319831681178455604051919092169283917f8be0079c531659141344cd1fd0a4f28419497f9722a3daafe3b4186f6b6457e09190a35050565b611588806100a96000396000f3fe6080604052600436106101125760003560e01c80638da5cb5b116100a5578063d73792a911610074578063eaf98d2311610059578063eaf98d2314610449578063f071db5a1461045e578063f2fde38b1461047457600080fd5b8063d73792a914610397578063de74e57b146103ad57600080fd5b80638da5cb5b14610319578063961f094414610341578063a9b07c2614610361578063ad05f1b41461037757600080fd5b806351ed8288116100e157806351ed8288146102af578063715018a6146102c257806382367b2d146102d757806387c35bc0146102f757600080fd5b8063070ddaf31461011e578063107a274a1461015157806320dc39d714610260578063476343ee1461029857600080fd5b3661011957005b600080fd5b34801561012a57600080fd5b5061013e610139366004611355565b610494565b6040519081526020015b60405180910390f35b34801561015d57600080fd5b5061020561016c366004611381565b6040805160c081018252600080825260208201819052918101829052606081018290526080810182905260a081019190915250600090815260026020818152604092839020835160c08101855281546001600160a01b03908116825260018301541692810192909252918201549281019290925260038101546060830152600481015460ff16151560808301526005015460a082015290565b6040516101489190600060c0820190506001600160a01b0380845116835280602085015116602084015250604083015160408301526060830151606083015260808301511515608083015260a083015160a083015292915050565b34801561026c57600080fd5b5061013e61027b366004611355565b600460209081526000928352604080842090915290825290205481565b3480156102a457600080fd5b506102ad6104f0565b005b6102ad6102bd366004611381565b61060a565b3480156102ce57600080fd5b506102ad6109cb565b3480156102e357600080fd5b506102ad6102f236600461139a565b6109dd565b34801561030357600080fd5b5061030c610b39565b60405161014891906113bc565b34801561032557600080fd5b506000546040516001600160a01b039091168152602001610148565b34801561034d57600080fd5b506102ad61035c366004611381565b610c3a565b34801561036d57600080fd5b5061013e60035481565b34801561038357600080fd5b506102ad610392366004611400565b610d59565b3480156103a357600080fd5b5061013e6103e881565b3480156103b957600080fd5b5061040f6103c8366004611381565b60026020819052600091825260409091208054600182015492820154600383015460048401546005909401546001600160a01b0393841695909316939192909160ff169086565b604080516001600160a01b0397881681529690951660208701529385019290925260608401521515608083015260a082015260c001610148565b34801561045557600080fd5b5061013e601981565b34801561046a57600080fd5b5061013e60055481565b34801561048057600080fd5b506102ad61048f366004611435565b611206565b6001600160a01b038216600090815260046020908152604080832084845290915281205480158015906104d8575060008181526002602052604090206004015460ff165b156104e45790506104ea565b60009150505b92915050565b6104f861125a565b6105006112a0565b600554806105555760405162461bcd60e51b815260206004820152601160248201527f4e6f206665657320636f6c6c656374656400000000000000000000000000000060448201526064015b60405180910390fd5b6000600581905580546040516001600160a01b039091169083908381818185875af1925050503d80600081146105a7576040519150601f19603f3d011682016040523d82523d6000602084013e6105ac565b606091505b50509050806105fd5760405162461bcd60e51b815260206004820152601160248201527f5769746864726177616c206661696c6564000000000000000000000000000000604482015260640161054c565b505061060860018055565b565b6106126112a0565b6000818152600260205260409020600481015460ff166106695760405162461bcd60e51b81526020600482015260126024820152714c697374696e67206e6f742061637469766560701b604482015260640161054c565b80600301543410156106bd5760405162461bcd60e51b815260206004820152601460248201527f496e73756666696369656e74207061796d656e74000000000000000000000000604482015260640161054c565b8054336001600160a01b03909116036107185760405162461bcd60e51b815260206004820152601260248201527f43616e6e6f7420627579206f776e204e46540000000000000000000000000000604482015260640161054c565b80546001820154600283015460038401546001600160a01b03938416939092169160006103e861074960198461146f565b6107539190611486565b9050600061076182846114a8565b6004888101805460ff191690556040517f23b872dd0000000000000000000000000000000000000000000000000000000081526001600160a01b0389811692820192909252336024820152604481018790529192508616906323b872dd90606401600060405180830381600087803b1580156107dc57600080fd5b505af11580156107f0573d6000803e3d6000fd5b505050506000866001600160a01b03168260405160006040518083038185875af1925050503d8060008114610841576040519150601f19603f3d011682016040523d82523d6000602084013e610846565b606091505b50509050806108975760405162461bcd60e51b815260206004820152601860248201527f5061796d656e7420746f2073656c6c6572206661696c65640000000000000000604482015260640161054c565b82600560008282546108a991906114bb565b90915550600090506108bb85346114a8565b9050801561095d57604051600090339083908381818185875af1925050503d8060008114610905576040519150601f19603f3d011682016040523d82523d6000602084013e61090a565b606091505b505090508061095b5760405162461bcd60e51b815260206004820152600d60248201527f526566756e64206661696c656400000000000000000000000000000000000000604482015260640161054c565b505b604080516001600160a01b038981168252602082018990529181018790526060810186905233918a16908c907f51ba90481882dd3b1837d5a4988dd25eea63fb1e44d55f8e31a44cc87217712d9060800160405180910390a45050505050505050506109c860018055565b50565b6109d361125a565b61060860006112e3565b6109e56112a0565b6000828152600260205260409020600481015460ff16610a3c5760405162461bcd60e51b81526020600482015260126024820152714c697374696e67206e6f742061637469766560701b604482015260640161054c565b80546001600160a01b03163314610a955760405162461bcd60e51b815260206004820152601660248201527f4f6e6c792073656c6c65722063616e2075706461746500000000000000000000604482015260640161054c565b60008211610ae55760405162461bcd60e51b815260206004820152601c60248201527f5072696365206d7573742062652067726561746572207468616e203000000000604482015260640161054c565b60038101805490839055604080518281526020810185905285917ff4705fc0f025f9ff67a89c581afa1929603b8f1fa2d06213f874664249a1aeed910160405180910390a25050610b3560018055565b5050565b6060600060015b6003548111610b835760008181526002602052604090206004015460ff1615610b715781610b6d816114ce565b9250505b80610b7b816114ce565b915050610b40565b5060008167ffffffffffffffff811115610b9f57610b9f6114e7565b604051908082528060200260200182016040528015610bc8578160200160208202803683370190505b509050600060015b6003548111610c315760008181526002602052604090206004015460ff1615610c1f5780838381518110610c0657610c066114fd565b602090810291909101015281610c1b816114ce565b9250505b80610c29816114ce565b915050610bd0565b50909392505050565b610c426112a0565b6000818152600260205260409020600481015460ff16610c995760405162461bcd60e51b81526020600482015260126024820152714c697374696e67206e6f742061637469766560701b604482015260640161054c565b80546001600160a01b03163314610cf25760405162461bcd60e51b815260206004820152601660248201527f4f6e6c792073656c6c65722063616e20756e6c69737400000000000000000000604482015260640161054c565b60048101805460ff191690556001810154815460028301546040519081526001600160a01b03928316929091169084907fcfc294041cf6c4018f78f0dc067891032fc50ea93ff366c5e4e8198b2d8a675b9060200160405180910390a4506109c860018055565b610d616112a0565b6001600160a01b038316610db75760405162461bcd60e51b815260206004820152601460248201527f496e76616c6964204e465420636f6e7472616374000000000000000000000000604482015260640161054c565b60008111610e075760405162461bcd60e51b815260206004820152601c60248201527f5072696365206d7573742062652067726561746572207468616e203000000000604482015260640161054c565b6040517f6352211e00000000000000000000000000000000000000000000000000000000815260048101839052839033906001600160a01b03831690636352211e90602401602060405180830381865afa158015610e69573d6000803e3d6000fd5b505050506040513d601f19601f82011682018060405250810190610e8d9190611513565b6001600160a01b031614610ee35760405162461bcd60e51b815260206004820152600d60248201527f4e6f74204e4654206f776e657200000000000000000000000000000000000000604482015260640161054c565b6040517fe985e9c50000000000000000000000000000000000000000000000000000000081523360048201523060248201526001600160a01b0382169063e985e9c590604401602060405180830381865afa158015610f46573d6000803e3d6000fd5b505050506040513d601f19601f82011682018060405250810190610f6a9190611530565b80610fff57506040517f081812fc0000000000000000000000000000000000000000000000000000000081526004810184905230906001600160a01b0383169063081812fc90602401602060405180830381865afa158015610fd0573d6000803e3d6000fd5b505050506040513d601f19601f82011682018060405250810190610ff49190611513565b6001600160a01b0316145b61104b5760405162461bcd60e51b815260206004820152601060248201527f4e4654206e6f7420617070726f76656400000000000000000000000000000000604482015260640161054c565b6001600160a01b038416600090815260046020908152604080832086845290915290205480156110d75760008181526002602052604090206004015460ff16156110d75760405162461bcd60e51b815260206004820152600e60248201527f416c7265616479206c6973746564000000000000000000000000000000000000604482015260640161054c565b60006003600081546110e8906114ce565b91829055506040805160c081018252338082526001600160a01b038a811660208085018281528587018d8152606087018d81526001608089018181524260a08b0190815260008d815260028089528d82209c518d5473ffffffffffffffffffffffffffffffffffffffff19908116918d16919091178e559751948d01805490981694909a1693909317909555925196890196909655516003880155516004808801805460ff19169215159290921790915590516005909601959095558183529384528482208b835284529084902085905583518a81529283018990529394509184917fb0fe4922ac99799c17a4130d5c045ba2ecdf6e15b75b9ea84aaf0dc28724a42b910160405180910390a450505061120160018055565b505050565b61120e61125a565b6001600160a01b038116611251576040517f1e4fbdf70000000000000000000000000000000000000000000000000000000081526000600482015260240161054c565b6109c8816112e3565b6000546001600160a01b03163314610608576040517f118cdaa700000000000000000000000000000000000000000000000000000000815233600482015260240161054c565b6002600154036112dc576040517f3ee5aeb500000000000000000000000000000000000000000000000000000000815260040160405180910390fd5b6002600155565b600080546001600160a01b0383811673ffffffffffffffffffffffffffffffffffffffff19831681178455604051919092169283917f8be0079c531659141344cd1fd0a4f28419497f9722a3daafe3b4186f6b6457e09190a35050565b6001600160a01b03811681146109c857600080fd5b6000806040838503121561136857600080fd5b823561137381611340565b946020939093013593505050565b60006020828403121561139357600080fd5b5035919050565b600080604083850312156113ad57600080fd5b50508035926020909101359150565b6020808252825182820181905260009190848201906040850190845b818110156113f4578351835292840192918401916001016113d8565b50909695505050505050565b60008060006060848603121561141557600080fd5b833561142081611340565b95602085013595506040909401359392505050565b60006020828403121561144757600080fd5b813561145281611340565b9392505050565b634e487b7160e01b600052601160045260246000fd5b80820281158282048414176104ea576104ea611459565b6000826114a357634e487b7160e01b600052601260045260246000fd5b500490565b818103818111156104ea576104ea611459565b808201808211156104ea576104ea611459565b6000600182016114e0576114e0611459565b5060010190565b634e487b7160e01b600052604160045260246000fd5b634e487b7160e01b600052603260045260246000fd5b60006020828403121561152557600080fd5b815161145281611340565b60006020828403121561154257600080fd5b8151801515811461145257600080fdfea264697066735822122035003f304b28e4102bee722bd1026beb2e7c314628a2e0e628e8c4eba234f50664736f6c63430008180033",
  "linkReferences": {},
  "deployedLinkReferences": {}
}