{
  "_format": "hh-sol-artifact-1",
  "contractName": "TokenSwap",
  "sourceName": "contracts/TokenSwap.sol",
  "abi": [
    {
      "inputs": [],
      "stateMutability": "nonpayable",
      "type": "constructor"
    },
    {
      "inputs": [
        {
          "internalType": "address",
          "name": "owner",
          "type": "address"
        }
      ],
      "name": "OwnableInvalidOwner",
      "type": "error"
    },
    {
      "inputs": [
        {
          "internalType": "address",
          "name": "account",
          "type": "address"
        }
      ],
      "name": "OwnableUnauthorizedAccount",
      "type": "error"
    },
    {
      "inputs": [],
      "name": "ReentrancyGuardReentrantCall",
      "type": "error"
    },
    {
      "anonymous": false,
      "inputs": [
        {
          "indexed": true,
          "internalType": "uint256",
          "name": "pairId",
          "type": "uint256"
        },
        {
          "indexed": false,
          "internalType": "uint256",
          "name": "amountA",
          "type": "uint256"
        },
        {
          "indexed": false,
          "internalType": "uint256",
          "name": "amountB",
          "type": "uint256"
        },
        {
          "indexed": true,
          "internalType": "address",
          "name": "provider",
          "type": "address"
        }
      ],
      "name": "LiquidityAdded",
      "type": "event"
    },
    {
      "anonymous": false,
      "inputs": [
        {
          "indexed": true,
          "internalType": "uint256",
          "name": "pairId",
          "type": "uint256"
        },
        {
          "indexed": false,
          "internalType": "uint256",
          "name": "amountA",
          "type": "uint256"
        },
        {
          "indexed": false,
          "internalType": "uint256",
          "name": "amountB",
          "type": "uint256"
        },
        {
          "indexed": true,
          "internalType": "address",
          "name": "provider",
          "type": "address"
        }
      ],
      "name": "LiquidityRemoved",
      "type": "event"
    },
    {
      "anonymous": false,
      "inputs": [
        {
          "indexed": true,
          "internalType": "address",
          "name": "previousOwner",
          "type": "address"
        },
        {
          "indexed": true,
          "internalType": "address",
          "name": "newOwner",
          "type": "address"
        }
      ],
      "name": "OwnershipTransferred",
      "type": "event"
    },
    {
      "anonymous": false,
      "inputs": [
        {
          "indexed": true,
          "internalType": "uint256",
          "name": "pairId",
          "type": "uint256"
        },
        {
          "indexed": false,
          "internalType": "address",
          "name": "tokenA",
          "type": "address"
        },
        {
          "indexed": false,
          "internalType": "address",
          "name": "tokenB",
          "type": "address"
        }
      ],
      "name": "PairCreated",
      "type": "event"
    },
    {
      "anonymous": false,
      "inputs": [
        {
          "indexed": true,
          "internalType": "uint256",
          "name": "pairId",
          "type": "uint256"
        },
        {
          "indexed": true,
          "internalType": "address",
          "name": "user",
          "type": "address"
        },
        {
          "indexed": false,
          "internalType": "address",
          "name": "tokenIn",
          "type": "address"
        },
        {
          "indexed": false,
          "internalType": "uint256",
          "name": "amountIn",
          "type": "uint256"
        },
        {
          "indexed": false,
          "internalType": "address",
          "name": "tokenOut",
          "type": "address"
        },
        {
          "indexed": false,
          "internalType": "uint256",
          "name": "amountOut",
          "type": "uint256"
        }
      ],
      "name": "Swapped",
      "type": "event"
    },
    {
      "inputs": [],
      "name": "FEE_DENOMINATOR",
      "outputs": [
        {
          "internalType": "uint256",
          "name": "",
          "type": "uint256"
        }
      ],
      "stateMutability": "view",
      "type": "function"
    },
    {
      "inputs": [],
      "name": "FEE_PERCENT",
      "outputs": [
        {
          "internalType": "uint256",
          "name": "",
          "type": "uint256"
        }
      ],
      "stateMutability": "view",
      "type": "function"
    },
    {
      "inputs": [
        {
          "internalType": "uint256",
          "name": "_pairId",
          "type": "uint256"
        },
        {
          "internalType": "uint256",
          "name": "_amountA",
          "type": "uint256"
        },
        {
          "internalType": "uint256",
          "name": "_amountB",
          "type": "uint256"
        }
      ],
      "name": "addLiquidity",
      "outputs": [],
      "stateMutability": "nonpayable",
      "type": "function"
    },
    {
      "inputs": [
        {
          "internalType": "address",
          "name": "_tokenA",
          "type": "address"
        },
        {
          "internalType": "address",
          "name": "_tokenB",
          "type": "address"
        }
      ],
      "name": "createPair",
      "outputs": [
        {
          "internalType": "uint256",
          "name": "",
          "type": "uint256"
        }
      ],
      "stateMutability": "nonpayable",
      "type": "function"
    },
    {
      "inputs": [
        {
          "internalType": "address",
          "name": "",
          "type": "address"
        }
      ],
      "name": "feeCollected",
      "outputs": [
        {
          "internalType": "uint256",
          "name": "",
          "type": "uint256"
        }
      ],
      "stateMutability": "view",
      "type": "function"
    },
    {
      "inputs": [
        {
          "internalType": "uint256",
          "name": "_pairId",
          "type": "uint256"
        }
      ],
      "name": "getPair",
      "outputs": [
        {
          "components": [
            {
              "internalType": "address",
              "name": "tokenA",
              "type": "address"
            },
            {
              "internalType": "address",
              "name": "tokenB",
              "type": "address"
            },
            {
              "internalType": "uint256",
              "name": "reserveA",
              "type": "uint256"
            },
            {
              "internalType": "uint256",
              "name": "reserveB",
              "type": "uint256"
            },
            {
              "internalType": "bool",
              "name": "active",
              "type": "bool"
            }
          ],
          "internalType": "struct TokenSwap.TradingPair",
          "name": "",
          "type": "tuple"
        }
      ],
      "stateMutability": "view",
      "type": "function"
    },
    {
      "inputs": [
        {
          "internalType": "uint256",
          "name": "_pairId",
          "type": "uint256"
        },
        {
          "internalType": "address",
          "name": "_tokenIn",
          "type": "address"
        },
        {
          "internalType": "uint256",
          "name": "_amountIn",
          "type": "uint256"
        }
      ],
      "name": "getQuote",
      "outputs": [
        {
          "internalType": "uint256",
          "name": "",
          "type": "uint256"
        }
      ],
      "stateMutability": "view",
      "type": "function"
    },
    {
      "inputs": [],
      "name": "owner",
      "outputs": [
        {
          "internalType": "address",
          "name": "",
          "type": "address"
        }
      ],
      "stateMutability": "view",
      "type": "function"
    },
    {
      "inputs": [],
      "name": "pairCount",
      "outputs": [
        {
          "internalType": "uint256",
          "name": "",
          "type": "uint256"
        }
      ],
      "stateMutability": "view",
      "type": "function"
    },
    {
      "inputs": [
        {
          "internalType": "uint256",
          "name": "_pairId",
          "type": "uint256"
        },
        {
          "internalType": "uint256",
          "name": "_amountA",
          "type": "uint256"
        }
      ],
      "name": "removeLiquidity",
      "outputs": [],
      "stateMutability": "nonpayable",
      "type": "function"
    },
    {
      "inputs": [],
      "name": "renounceOwnership",
      "outputs": [],
      "stateMutability": "nonpayable",
      "type": "function"
    },
    {
      "inputs": [
        {
          "internalType": "uint256",
          "name": "_pairId",
          "type": "uint256"
        },
        {
          "internalType": "address",
          "name": "_tokenIn",
          "type": "address"
        },
        {
          "internalType": "uint256",
          "name": "_amountIn",
          "type": "uint256"
        }
      ],
      "name": "swap",
      "outputs": [
        {
          "internalType": "uint256",
          "name": "",
          "type": "uint256"
        }
      ],
      "stateMutability": "nonpayable",
      "type": "function"
    },
    {
      "inputs": [
        {
          "internalType": "uint256",
          "name": "",
          "type": "uint256"
        }
      ],
      "name": "tradingPairs",
      "outputs": [
        {
          "internalType": "address",
          "name": "tokenA",
          "type": "address"
        },
        {
          "internalType": "address",
          "name": "tokenB",
          "type": "address"
        },
        {
          "internalType": "uint256",
          "name": "reserveA",
          "type": "uint256"
        },
        {
          "internalType": "uint256",
          "name": "reserveB",
          "type": "uint256"
        },
        {
          "internalType": "bool",
          "name": "active",
          "type": "bool"
        }
      ],
      "stateMutability": "view",
      "type": "function"
    },
    {
      "inputs": [
        {
          "internalType": "address",
          "name": "newOwner",
          "type": "address"
        }
      ],
      "name": "transferOwnership",
      "outputs": [],
      "stateMutability": "nonpayable",
      "type": "function"
    },
    {
      "inputs": [
        {
          "internalType": "address",
          "name": "_token",
          "type": "address"
        }
      ],
      "name": "withdrawFee",
      "outputs": [],
      "stateMutability": "nonpayable",
      "type": "function"
    }
  ],
  "bytecode": "0x608060405234801561001057600080fd5b50338061003757604051631e4fbdf760e01b81526000600482015260240160405180910390fd5b6100408161004a565b506001805561009a565b600080546001600160a01b038381166001600160a01b0319831681178455604051919092169283917f8be0079c531659141344cd1fd0a4f28419497f9722a3daafe3b4186f6b6457e09190a35050565b6115b9806100a96000396000f3fe608060405234801561001057600080fd5b50600436106100f55760003560e01c80639c8e308511610097578063d73792a911610066578063d73792a9146102b4578063eaf98d23146102bd578063f2fde38b146102c5578063f751fb23146102d857600080fd5b80639c8e3085146101945780639d7de6b3146101a7578063bdf391cc146101ba578063c9c65396146102a157600080fd5b806343264349116100d3578063432643491461013e578063715018a61461015157806372ce25c2146101595780638da5cb5b1461017957600080fd5b8063173fd1db146100fa5780631ac3ddeb14610116578063422f10431461012b575b600080fd5b61010360035481565b6040519081526020015b60405180910390f35b6101296101243660046113e9565b61035a565b005b610129610139366004611404565b6104d9565b61010361014c366004611430565b6107a0565b610129610c86565b6101036101673660046113e9565b60046020526000908152604090205481565b6000546040516001600160a01b03909116815260200161010d565b6101036101a2366004611430565b610c9a565b6101296101b5366004611465565b610d91565b6102506101c8366004611487565b6040805160a08101825260008082526020820181905291810182905260608101829052608081019190915250600090815260026020818152604092839020835160a08101855281546001600160a01b039081168252600183015416928101929092529182015492810192909252600381015460608301526004015460ff161515608082015290565b60405161010d9190600060a0820190506001600160a01b0380845116835280602085015116602084015250604083015160408301526060830151606083015260808301511515608083015292915050565b6101036102af3660046114a0565b6110b7565b6101036103e881565b610103600381565b6101296102d33660046113e9565b611293565b6103256102e6366004611487565b6002602081905260009182526040909120805460018201549282015460038301546004909301546001600160a01b039283169490921692909160ff1685565b604080516001600160a01b0396871681529590941660208601529284019190915260608301521515608082015260a00161010d565b6103626112e7565b61036a61132d565b6001600160a01b038116600090815260046020526040902054806103d55760405162461bcd60e51b815260206004820152601060248201527f4e6f2066656520636f6c6c65637465640000000000000000000000000000000060448201526064015b60405180910390fd5b6001600160a01b03821660008181526004602052604081205563a9059cbb6104056000546001600160a01b031690565b6040517fffffffff0000000000000000000000000000000000000000000000000000000060e084901b1681526001600160a01b039091166004820152602481018490526044016020604051808303816000875af115801561046a573d6000803e3d6000fd5b505050506040513d601f19601f8201168201806040525081019061048e91906114d3565b6104cc5760405162461bcd60e51b815260206004820152600f60248201526e151c985b9cd9995c8819985a5b1959608a1b60448201526064016103cc565b506104d660018055565b50565b6104e161132d565b6000838152600260205260409020600481015460ff166105355760405162461bcd60e51b815260206004820152600f60248201526e50616972206e6f742061637469766560881b60448201526064016103cc565b6000831180156105455750600082115b6105915760405162461bcd60e51b815260206004820152601e60248201527f416d6f756e7473206d7573742062652067726561746572207468616e2030000060448201526064016103cc565b80546040516323b872dd60e01b8152336004820152306024820152604481018590526001600160a01b03909116906323b872dd906064016020604051808303816000875af11580156105e7573d6000803e3d6000fd5b505050506040513d601f19601f8201168201806040525081019061060b91906114d3565b6106575760405162461bcd60e51b815260206004820152601660248201527f546f6b656e41207472616e73666572206661696c65640000000000000000000060448201526064016103cc565b60018101546040516323b872dd60e01b8152336004820152306024820152604481018490526001600160a01b03909116906323b872dd906064016020604051808303816000875af11580156106b0573d6000803e3d6000fd5b505050506040513d601f19601f820116820180604052508101906106d491906114d3565b6107205760405162461bcd60e51b815260206004820152601660248201527f546f6b656e42207472616e73666572206661696c65640000000000000000000060448201526064016103cc565b82816002016000828254610734919061150b565b925050819055508181600301600082825461074f919061150b565b90915550506040805184815260208101849052339186917f60e891767828cb693b40fbd07b543a48064e5522caad1c341743555bdd0b16dc910160405180910390a35061079b60018055565b505050565b60006107aa61132d565b6000848152600260205260409020600481015460ff166107fe5760405162461bcd60e51b815260206004820152600f60248201526e50616972206e6f742061637469766560881b60448201526064016103cc565b6000831161084e5760405162461bcd60e51b815260206004820152601d60248201527f416d6f756e74206d7573742062652067726561746572207468616e203000000060448201526064016103cc565b8054600090819081906001600160a01b039081169088160361088d575050506001810154600282015460038301546001600160a01b039092169161090e565b60018401546001600160a01b03908116908816036108c65750508154600383015460028401546001600160a01b0390921692509061090e565b60405162461bcd60e51b815260206004820152600d60248201527f496e76616c696420746f6b656e0000000000000000000000000000000000000060448201526064016103cc565b6040516323b872dd60e01b8152336004820152306024820152604481018790526001600160a01b038816906323b872dd906064016020604051808303816000875af1158015610961573d6000803e3d6000fd5b505050506040513d601f19601f8201168201806040525081019061098591906114d3565b6109c35760405162461bcd60e51b815260206004820152600f60248201526e151c985b9cd9995c8819985a5b1959608a1b60448201526064016103cc565b60006103e86109d360038261151e565b6109dd9089611531565b6109e79190611548565b905060006109f5828961151e565b90506000610a03838661150b565b610a0d8585611531565b610a179190611548565b905060008111610a695760405162461bcd60e51b815260206004820152601a60248201527f496e73756666696369656e74206f757470757420616d6f756e7400000000000060448201526064016103cc565b83811115610ab95760405162461bcd60e51b815260206004820152601460248201527f496e73756666696369656e74207265736572766500000000000000000000000060448201526064016103cc565b86546001600160a01b03908116908b1603610b085782876002016000828254610ae2919061150b565b9250508190555080876003016000828254610afd919061151e565b90915550610b3d9050565b82876003016000828254610b1c919061150b565b9250508190555080876002016000828254610b37919061151e565b90915550505b6001600160a01b038a1660009081526004602052604081208054849290610b6590849061150b565b909155505060405163a9059cbb60e01b8152336004820152602481018290526001600160a01b0387169063a9059cbb906044016020604051808303816000875af1158015610bb7573d6000803e3d6000fd5b505050506040513d601f19601f82011682018060405250810190610bdb91906114d3565b610c195760405162461bcd60e51b815260206004820152600f60248201526e151c985b9cd9995c8819985a5b1959608a1b60448201526064016103cc565b604080516001600160a01b038c81168252602082018c905288168183015260608101839052905133918d917f1b9431c8eee32356843171aa084be127aa2bc5c2a148eb78ef0ad95fe913b8ba9181900360800190a39650505050505050610c7f60018055565b9392505050565b610c8e6112e7565b610c986000611370565b565b6000838152600260205260408120600481015460ff16610cee5760405162461bcd60e51b815260206004820152600f60248201526e50616972206e6f742061637469766560881b60448201526064016103cc565b805460009081906001600160a01b0390811690871603610d1957505060028101546003820154610d3e565b60018301546001600160a01b03908116908716036108c6575050600381015460028201545b60006103e8610d4e60038261151e565b610d589088611531565b610d629190611548565b90506000610d70828561150b565b610d7a8484611531565b610d849190611548565b9998505050505050505050565b610d9961132d565b6000828152600260205260409020600481015460ff16610ded5760405162461bcd60e51b815260206004820152600f60248201526e50616972206e6f742061637469766560881b60448201526064016103cc565b60008211610e3d5760405162461bcd60e51b815260206004820152601d60248201527f416d6f756e74206d7573742062652067726561746572207468616e203000000060448201526064016103cc565b8181600201541015610e915760405162461bcd60e51b815260206004820152601460248201527f496e73756666696369656e74207265736572766500000000000000000000000060448201526064016103cc565b60008160020154826003015484610ea89190611531565b610eb29190611548565b905082826002016000828254610ec8919061151e565b9250508190555080826003016000828254610ee3919061151e565b9091555050815460405163a9059cbb60e01b8152336004820152602481018590526001600160a01b039091169063a9059cbb906044016020604051808303816000875af1158015610f38573d6000803e3d6000fd5b505050506040513d601f19601f82011682018060405250810190610f5c91906114d3565b610fa85760405162461bcd60e51b815260206004820152601660248201527f546f6b656e41207472616e73666572206661696c65640000000000000000000060448201526064016103cc565b600182015460405163a9059cbb60e01b8152336004820152602481018390526001600160a01b039091169063a9059cbb906044016020604051808303816000875af1158015610ffb573d6000803e3d6000fd5b505050506040513d601f19601f8201168201806040525081019061101f91906114d3565b61106b5760405162461bcd60e51b815260206004820152601660248201527f546f6b656e42207472616e73666572206661696c65640000000000000000000060448201526064016103cc565b6040805184815260208101839052339186917f4fe641bc292c141d81dbeac453e2c83e48f3dff7a70f584449004ed230cdf495910160405180910390a350506110b360018055565b5050565b60006110c16112e7565b6001600160a01b038316158015906110e157506001600160a01b03821615155b61112d5760405162461bcd60e51b815260206004820152601160248201527f496e76616c69642061646472657373657300000000000000000000000000000060448201526064016103cc565b816001600160a01b0316836001600160a01b03160361118e5760405162461bcd60e51b815260206004820152601860248201527f546f6b656e73206d75737420626520646966666572656e74000000000000000060448201526064016103cc565b600380546040805160a0810182526001600160a01b03808816825286811660208084019182526000848601818152606086018281526001608088018181528a85526002958690529884209751885490881673ffffffffffffffffffffffffffffffffffffffff199182161789559551908801805491909716951694909417909455925190840155518286015591516004909101805491151560ff1990921691909117905582549192906112408361156a565b9091555050604080516001600160a01b0380871682528516602082015282917f02a47afa70a0c9a6546a7935738f3a99c674b215a93b1552adf49442a51e9e7e910160405180910390a290505b92915050565b61129b6112e7565b6001600160a01b0381166112de576040517f1e4fbdf7000000000000000000000000000000000000000000000000000000008152600060048201526024016103cc565b6104d681611370565b6000546001600160a01b03163314610c98576040517f118cdaa70000000000000000000000000000000000000000000000000000000081523360048201526024016103cc565b600260015403611369576040517f3ee5aeb500000000000000000000000000000000000000000000000000000000815260040160405180910390fd5b6002600155565b600080546001600160a01b0383811673ffffffffffffffffffffffffffffffffffffffff19831681178455604051919092169283917f8be0079c531659141344cd1fd0a4f28419497f9722a3daafe3b4186f6b6457e09190a35050565b80356001600160a01b03811681146113e457600080fd5b919050565b6000602082840312156113fb57600080fd5b610c7f826113cd565b60008060006060848603121561141957600080fd5b505081359360208301359350604090920135919050565b60008060006060848603121561144557600080fd5b83359250611455602085016113cd565b9150604084013590509250925092565b6000806040838503121561147857600080fd5b50508035926020909101359150565b60006020828403121561149957600080fd5b5035919050565b600080604083850312156114b357600080fd5b6114bc836113cd565b91506114ca602084016113cd565b90509250929050565b6000602082840312156114e557600080fd5b81518015158114610c7f57600080fd5b634e487b7160e01b600052601160045260246000fd5b8082018082111561128d5761128d6114f5565b8181038181111561128d5761128d6114f5565b808202811582820484141761128d5761128d6114f5565b60008261156557634e487b7160e01b600052601260045260246000fd5b500490565b60006001820161157c5761157c6114f5565b506001019056fea2646970667358221220f42cfa314710f05e89eb3533b1ad555f60dccc33a0526a102e9697a78c67bcf064736f6c63430008180033",
  "linkReferences": {},
  "deployedLinkReferences": {}
}