{
  "_format": "hh-sol-artifact-1",
  "contractName": "ZenithNFT",
  "sourceName": "contracts/ZenithNFT.sol",
  "abi": [
    {
      "inputs": [
        {
          "internalType": "address",
          "name": "initialOwner",
          "type": "address"
        }
      ],
      "stateMutability": "nonpayable",
      "type": "constructor"
    },
    {
      "inputs": [
        {
          "internalType": "address",
          "name": "sender",
          "type": "address"
        },
        {
          "internalType": "uint256",
          "name": "tokenId",
          "type": "uint256"
        },
        {
          "internalType": "address",
          "name": "owner",
          "type": "address"
        }
      ],
      "name": "ERC721IncorrectOwner",
      "type": "error"
    },
    {
      "inputs": [
        {
          "internalType": "address",
          "name": "operator",
          "type": "address"
        },
        {
          "internalType": "uint256",
          "name": "tokenId",
          "type": "uint256"
        }
      ],
      "name": "ERC721InsufficientApproval",
      "type": "error"
    },
    {
      "inputs": [
        {
          "internalType": "address",
          "name": "approver",
          "type": "address"
        }
      ],
      "name": "ERC721InvalidApprover",
      "type": "error"
    },
    {
      "inputs": [
        {
          "internalType": "address",
          "name": "operator",
          "type": "address"
        }
      ],
      "name": "ERC721InvalidOperator",
      "type": "error"
    },
    {
      "inputs": [
        {
          "internalType": "address",
          "name": "owner",
          "type": "address"
        }
      ],
      "name": "ERC721InvalidOwner",
      "type": "error"
    },
    {
      "inputs": [
        {
          "internalType": "address",
          "name": "receiver",
          "type": "address"
        }
      ],
      "name": "ERC721InvalidReceiver",
      "type": "error"
    },
    {
      "inputs": [
        {
          "internalType": "address",
          "name": "sender",
          "type": "address"
        }
      ],
      "name": "ERC721InvalidSender",
      "type": "error"
    },
    {
      "inputs": [
        {
          "internalType": "uint256",
          "name": "tokenId",
          "type": "uint256"
        }
      ],
      "name": "ERC721NonexistentToken",
      "type": "error"
    },
    {
      "inputs": [
        {
          "internalType": "address",
          "name": "owner",
          "type": "address"
        }
      ],
      "name": "OwnableInvalidOwner",
      "type": "error"
    },
    {
      "inputs": [
        {
          "internalType": "address",
          "name": "account",
          "type": "address"
        }
      ],
      "name": "OwnableUnauthorizedAccount",
      "type": "error"
    },
    {
      "anonymous": false,
      "inputs": [
        {
          "indexed": true,
          "internalType": "address",
          "name": "owner",
          "type": "address"
        },
        {
          "indexed": true,
          "internalType": "address",
          "name": "approved",
          "type": "address"
        },
        {
          "indexed": true,
          "internalType": "uint256",
          "name": "tokenId",
          "type": "uint256"
        }
      ],
      "name": "Approval",
      "type": "event"
    },
    {
      "anonymous": false,
      "inputs": [
        {
          "indexed": true,
          "internalType": "address",
          "name": "owner",
          "type": "address"
        },
        {
          "indexed": true,
          "internalType": "address",
          "name": "operator",
          "type": "address"
        },
        {
          "indexed": false,
          "internalType": "bool",
          "name": "approved",
          "type": "bool"
        }
      ],
      "name": "ApprovalForAll",
      "type": "event"
    },
    {
      "anonymous": false,
      "inputs": [
        {
          "indexed": false,
          "internalType": "uint256",
          "name": "_fromTokenId",
          "type": "uint256"
        },
        {
          "indexed": false,
          "internalType": "uint256",
          "name": "_toTokenId",
          "type": "uint256"
        }
      ],
      "name": "BatchMetadataUpdate",
      "type": "event"
    },
    {
      "anonymous": false,
      "inputs": [
        {
          "indexed": false,
          "internalType": "uint256",
          "name": "_tokenId",
          "type": "uint256"
        }
      ],
      "name": "MetadataUpdate",
      "type": "event"
    },
    {
      "anonymous": false,
      "inputs": [
        {
          "indexed": true,
          "internalType": "address",
          "name": "previousOwner",
          "type": "address"
        },
        {
          "indexed": true,
          "internalType": "address",
          "name": "newOwner",
          "type": "address"
        }
      ],
      "name": "OwnershipTransferred",
      "type": "event"
    },
    {
      "anonymous": false,
      "inputs": [
        {
          "indexed": true,
          "internalType": "address",
          "name": "from",
          "type": "address"
        },
        {
          "indexed": true,
          "internalType": "address",
          "name": "to",
          "type": "address"
        },
        {
          "indexed": true,
          "internalType": "uint256",
          "name": "tokenId",
          "type": "uint256"
        }
      ],
      "name": "Transfer",
      "type": "event"
    },
    {
      "inputs": [
        {
          "internalType": "address",
          "name": "to",
          "type": "address"
        },
        {
          "internalType": "uint256",
          "name": "tokenId",
          "type": "uint256"
        }
      ],
      "name": "approve",
      "outputs": [],
      "stateMutability": "nonpayable",
      "type": "function"
    },
    {
      "inputs": [
        {
          "internalType": "address",
          "name": "owner",
          "type": "address"
        }
      ],
      "name": "balanceOf",
      "outputs": [
        {
          "internalType": "uint256",
          "name": "",
          "type": "uint256"
        }
      ],
      "stateMutability": "view",
      "type": "function"
    },
    {
      "inputs": [
        {
          "internalType": "uint256",
          "name": "tokenId",
          "type": "uint256"
        }
      ],
      "name": "getApproved",
      "outputs": [
        {
          "internalType": "address",
          "name": "",
          "type": "address"
        }
      ],
      "stateMutability": "view",
      "type": "function"
    },
    {
      "inputs": [
        {
          "internalType": "address",
          "name": "owner",
          "type": "address"
        },
        {
          "internalType": "address",
          "name": "operator",
          "type": "address"
        }
      ],
      "name": "isApprovedForAll",
      "outputs": [
        {
          "internalType": "bool",
          "name": "",
          "type": "bool"
        }
      ],
      "stateMutability": "view",
      "type": "function"
    },
    {
      "inputs": [],
      "name": "name",
      "outputs": [
        {
          "internalType": "string",
          "name": "",
          "type": "string"
        }
      ],
      "stateMutability": "view",
      "type": "function"
    },
    {
      "inputs": [],
      "name": "owner",
      "outputs": [
        {
          "internalType": "address",
          "name": "",
          "type": "address"
        }
      ],
      "stateMutability": "view",
      "type": "function"
    },
    {
      "inputs": [
        {
          "internalType": "uint256",
          "name": "tokenId",
          "type": "uint256"
        }
      ],
      "name": "ownerOf",
      "outputs": [
        {
          "internalType": "address",
          "name": "",
          "type": "address"
        }
      ],
      "stateMutability": "view",
      "type": "function"
    },
    {
      "inputs": [],
      "name": "renounceOwnership",
      "outputs": [],
      "stateMutability": "nonpayable",
      "type": "function"
    },
    {
      "inputs": [
        {
          "internalType": "address",
          "name": "to",
          "type": "address"
        },
        {
          "internalType": "string",
          "name": "uri",
          "type": "string"
        }
      ],
      "name": "safeMint",
      "outputs": [],
      "stateMutability": "nonpayable",
      "type": "function"
    },
    {
      "inputs": [
        {
          "internalType": "address",
          "name": "from",
          "type": "address"
        },
        {
          "internalType": "address",
          "name": "to",
          "type": "address"
        },
        {
          "internalType": "uint256",
          "name": "tokenId",
          "type": "uint256"
        }
      ],
      "name": "safeTransferFrom",
      "outputs": [],
      "stateMutability": "nonpayable",
      "type": "function"
    },
    {
      "inputs": [
        {
          "internalType": "address",
          "name": "from",
          "type": "address"
        },
        {
          "internalType": "address",
          "name": "to",
          "type": "address"
        },
        {
          "internalType": "uint256",
          "name": "tokenId",
          "type": "uint256"
        },
        {
          "internalType": "bytes",
          "name": "data",
          "type": "bytes"
        }
      ],
      "name": "safeTransferFrom",
      "outputs": [],
      "stateMutability": "nonpayable",
      "type": "function"
    },
    {
      "inputs": [
        {
          "internalType": "address",
          "name": "operator",
          "type": "address"
        },
        {
          "internalType": "bool",
          "name": "approved",
          "type": "bool"
        }
      ],
      "name": "setApprovalForAll",
      "outputs": [],
      "stateMutability": "nonpayable",
      "type": "function"
    },
    {
      "inputs": [
        {
          "internalType": "bytes4",
          "name": "interfaceId",
          "type": "bytes4"
        }
      ],
      "name": "supportsInterface",
      "outputs": [
        {
          "internalType": "bool",
          "name": "",
          "type": "bool"
        }
      ],
      "stateMutability": "view",
      "type": "function"
    },
    {
      "inputs": [],
      "name": "symbol",
      "outputs": [
        {
          "internalType": "string",
          "name": "",
          "type": "string"
        }
      ],
      "stateMutability": "view",
      "type": "function"
    },
    {
      "inputs": [
        {
          "internalType": "uint256",
          "name": "tokenId",
          "type": "uint256"
        }
      ],
      "name": "tokenURI",
      "outputs": [
        {
          "internalType": "string",
          "name": "",
          "type": "string"
        }
      ],
      "stateMutability": "view",
      "type": "function"
    },
    {
      "inputs": [
        {
          "internalType": "address",
          "name": "from",
          "type": "address"
        },
        {
          "internalType": "address",
          "name": "to",
          "type": "address"
        },
        {
          "internalType": "uint256",
          "name": "tokenId",
          "type": "uint256"
        }
      ],
      "name": "transferFrom",
      "outputs": [],
      "stateMutability": "nonpayable",
      "type": "function"
    },
    {
      "inputs": [
        {
          "internalType": "address",
          "name": "newOwner",
          "type": "address"
        }
      ],
      "name": "transferOwnership",
      "outputs": [],
      "stateMutability": "nonpayable",
      "type": "function"
    }
  ],
  "bytecode": "0x60806040523480156200001157600080fd5b50604051620018bc380380620018bc833981016040819052620000349162000133565b80604051806040016040528060118152602001702d32b734ba341021b7b63632b1ba34b7b760791b815250604051806040016040528060048152602001631693919560e21b81525081600090816200008d91906200020c565b5060016200009c82826200020c565b5050506001600160a01b038116620000ce57604051631e4fbdf760e01b81526000600482015260240160405180910390fd5b620000d981620000e1565b5050620002d8565b600780546001600160a01b038381166001600160a01b0319831681179093556040519116919082907f8be0079c531659141344cd1fd0a4f28419497f9722a3daafe3b4186f6b6457e090600090a35050565b6000602082840312156200014657600080fd5b81516001600160a01b03811681146200015e57600080fd5b9392505050565b634e487b7160e01b600052604160045260246000fd5b600181811c908216806200019057607f821691505b602082108103620001b157634e487b7160e01b600052602260045260246000fd5b50919050565b601f82111562000207576000816000526020600020601f850160051c81016020861015620001e25750805b601f850160051c820191505b818110156200020357828155600101620001ee565b5050505b505050565b81516001600160401b0381111562000228576200022862000165565b62000240816200023984546200017b565b84620001b7565b602080601f8311600181146200027857600084156200025f5750858301515b600019600386901b1c1916600185901b17855562000203565b600085815260208120601f198616915b82811015620002a95788860151825594840194600190910190840162000288565b5085821015620002c85787850151600019600388901b60f8161c191681555b5050505050600190811b01905550565b6115d480620002e86000396000f3fe608060405234801561001057600080fd5b506004361061011b5760003560e01c8063715018a6116100b2578063b88d4fde11610081578063d204c45e11610066578063d204c45e14610251578063e985e9c514610264578063f2fde38b146102a057600080fd5b8063b88d4fde1461022b578063c87b56dd1461023e57600080fd5b8063715018a6146101f75780638da5cb5b146101ff57806395d89b4114610210578063a22cb4651461021857600080fd5b806323b872dd116100ee57806323b872dd1461019d57806342842e0e146101b05780636352211e146101c357806370a08231146101d657600080fd5b806301ffc9a71461012057806306fdde0314610148578063081812fc1461015d578063095ea7b314610188575b600080fd5b61013361012e36600461109e565b6102b3565b60405190151581526020015b60405180910390f35b6101506102f7565b60405161013f919061110b565b61017061016b36600461111e565b610389565b6040516001600160a01b03909116815260200161013f565b61019b610196366004611153565b6103b2565b005b61019b6101ab36600461117d565b6103c1565b61019b6101be36600461117d565b61046a565b6101706101d136600461111e565b61048a565b6101e96101e43660046111b9565b610495565b60405190815260200161013f565b61019b6104f6565b6007546001600160a01b0316610170565b61015061050a565b61019b6102263660046111d4565b610519565b61019b61023936600461129c565b610524565b61015061024c36600461111e565b61053c565b61019b61025f366004611318565b61064d565b61013361027236600461137a565b6001600160a01b03918216600090815260056020908152604080832093909416825291909152205460ff1690565b61019b6102ae3660046111b9565b610680565b60006001600160e01b031982167f490649060000000000000000000000000000000000000000000000000000000014806102f157506102f1826106d7565b92915050565b606060008054610306906113ad565b80601f0160208091040260200160405190810160405280929190818152602001828054610332906113ad565b801561037f5780601f106103545761010080835404028352916020019161037f565b820191906000526020600020905b81548152906001019060200180831161036257829003601f168201915b5050505050905090565b600061039482610772565b506000828152600460205260409020546001600160a01b03166102f1565b6103bd8282336107ab565b5050565b6001600160a01b0382166103f057604051633250574960e11b8152600060048201526024015b60405180910390fd5b60006103fd8383336107b8565b9050836001600160a01b0316816001600160a01b031614610464576040517f64283d7b0000000000000000000000000000000000000000000000000000000081526001600160a01b03808616600483015260248201849052821660448201526064016103e7565b50505050565b61048583838360405180602001604052806000815250610524565b505050565b60006102f182610772565b60006001600160a01b0382166104da576040517f89c62b64000000000000000000000000000000000000000000000000000000008152600060048201526024016103e7565b506001600160a01b031660009081526003602052604090205490565b6104fe6108be565b6105086000610904565b565b606060018054610306906113ad565b6103bd338383610963565b61052f8484846103c1565b6104643385858585610a1b565b606061054782610772565b5060008281526006602052604081208054610561906113ad565b80601f016020809104026020016040519081016040528092919081815260200182805461058d906113ad565b80156105da5780601f106105af576101008083540402835291602001916105da565b820191906000526020600020905b8154815290600101906020018083116105bd57829003601f168201915b5050505050905060006105f860408051602081019091526000815290565b9050805160000361060a575092915050565b81511561063c5780826040516020016106249291906113e7565b60405160208183030381529060405292505050919050565b61064584610b46565b949350505050565b6106556108be565b600880546000918261066683611416565b9190505590506106768382610bbb565b6104858183610bd5565b6106886108be565b6001600160a01b0381166106cb576040517f1e4fbdf7000000000000000000000000000000000000000000000000000000008152600060048201526024016103e7565b6106d481610904565b50565b60006001600160e01b031982167f80ac58cd00000000000000000000000000000000000000000000000000000000148061073a57506001600160e01b031982167f5b5e139f00000000000000000000000000000000000000000000000000000000145b806102f157507f01ffc9a7000000000000000000000000000000000000000000000000000000006001600160e01b03198316146102f1565b6000818152600260205260408120546001600160a01b0316806102f157604051637e27328960e01b8152600481018490526024016103e7565b6104858383836001610c25565b6000828152600260205260408120546001600160a01b03908116908316156107e5576107e5818486610d70565b6001600160a01b0381161561082357610802600085600080610c25565b6001600160a01b038116600090815260036020526040902080546000190190555b6001600160a01b03851615610852576001600160a01b0385166000908152600360205260409020805460010190555b600084815260026020526040808220805473ffffffffffffffffffffffffffffffffffffffff19166001600160a01b0389811691821790925591518793918516917fddf252ad1be2c89b69c2b068fc378daa952ba7f163c4a11628f55a4df523b3ef91a4949350505050565b6007546001600160a01b03163314610508576040517f118cdaa70000000000000000000000000000000000000000000000000000000081523360048201526024016103e7565b600780546001600160a01b0383811673ffffffffffffffffffffffffffffffffffffffff19831681179093556040519116919082907f8be0079c531659141344cd1fd0a4f28419497f9722a3daafe3b4186f6b6457e090600090a35050565b6001600160a01b0382166109ae576040517f5b08ba180000000000000000000000000000000000000000000000000000000081526001600160a01b03831660048201526024016103e7565b6001600160a01b03838116600081815260056020908152604080832094871680845294825291829020805460ff191686151590811790915591519182527f17307eab39ab6107e8899845ad3d59bd9653f200f220920489ca2b5937696c31910160405180910390a3505050565b6001600160a01b0383163b15610b3f57604051630a85bd0160e11b81526001600160a01b0384169063150b7a0290610a5d90889088908790879060040161143d565b6020604051808303816000875af1925050508015610a98575060408051601f3d908101601f19168201909252610a9591810190611479565b60015b610b01573d808015610ac6576040519150601f19603f3d011682016040523d82523d6000602084013e610acb565b606091505b508051600003610af957604051633250574960e11b81526001600160a01b03851660048201526024016103e7565b805160208201fd5b6001600160e01b03198116630a85bd0160e11b14610b3d57604051633250574960e11b81526001600160a01b03851660048201526024016103e7565b505b5050505050565b6060610b5182610772565b506000610b6960408051602081019091526000815290565b90506000815111610b895760405180602001604052806000815250610bb4565b80610b9384610ded565b604051602001610ba49291906113e7565b6040516020818303038152906040525b9392505050565b6103bd828260405180602001604052806000815250610e8d565b6000828152600660205260409020610bed82826114de565b506040518281527ff8e1a15aba9398e019f0b49df1a4fde98ee17ae345cb5f6b5e2c27f5033e8ce79060200160405180910390a15050565b8080610c3957506001600160a01b03821615155b15610d33576000610c4984610772565b90506001600160a01b03831615801590610c755750826001600160a01b0316816001600160a01b031614155b8015610ca757506001600160a01b0380821660009081526005602090815260408083209387168352929052205460ff16155b15610ce9576040517fa9fbf51f0000000000000000000000000000000000000000000000000000000081526001600160a01b03841660048201526024016103e7565b8115610d315783856001600160a01b0316826001600160a01b03167f8c5be1e5ebec7d5bd14f71427d1e84f3dd0314c0f7b2291e5b200ac8c7c3b92560405160405180910390a45b505b50506000908152600460205260409020805473ffffffffffffffffffffffffffffffffffffffff19166001600160a01b0392909216919091179055565b610d7b838383610ea5565b610485576001600160a01b038316610da957604051637e27328960e01b8152600481018290526024016103e7565b6040517f177e802f0000000000000000000000000000000000000000000000000000000081526001600160a01b0383166004820152602481018290526044016103e7565b60606000610dfa83610f28565b600101905060008167ffffffffffffffff811115610e1a57610e1a611210565b6040519080825280601f01601f191660200182016040528015610e44576020820181803683370190505b5090508181016020015b600019017f3031323334353637383961626364656600000000000000000000000000000000600a86061a8153600a8504945084610e4e57509392505050565b610e97838361100a565b610485336000858585610a1b565b60006001600160a01b038316158015906106455750826001600160a01b0316846001600160a01b03161480610eff57506001600160a01b0380851660009081526005602090815260408083209387168352929052205460ff165b806106455750506000908152600460205260409020546001600160a01b03908116911614919050565b6000807a184f03e93ff9f4daa797ed6e38ed64bf6a1f0100000000000000008310610f71577a184f03e93ff9f4daa797ed6e38ed64bf6a1f010000000000000000830492506040015b6d04ee2d6d415b85acef81000000008310610f9d576d04ee2d6d415b85acef8100000000830492506020015b662386f26fc100008310610fbb57662386f26fc10000830492506010015b6305f5e1008310610fd3576305f5e100830492506008015b6127108310610fe757612710830492506004015b60648310610ff9576064830492506002015b600a83106102f15760010192915050565b6001600160a01b03821661103457604051633250574960e11b8152600060048201526024016103e7565b6000611042838360006107b8565b90506001600160a01b03811615610485576040517f73c6ac6e000000000000000000000000000000000000000000000000000000008152600060048201526024016103e7565b6001600160e01b0319811681146106d457600080fd5b6000602082840312156110b057600080fd5b8135610bb481611088565b60005b838110156110d65781810151838201526020016110be565b50506000910152565b600081518084526110f78160208601602086016110bb565b601f01601f19169290920160200192915050565b602081526000610bb460208301846110df565b60006020828403121561113057600080fd5b5035919050565b80356001600160a01b038116811461114e57600080fd5b919050565b6000806040838503121561116657600080fd5b61116f83611137565b946020939093013593505050565b60008060006060848603121561119257600080fd5b61119b84611137565b92506111a960208501611137565b9150604084013590509250925092565b6000602082840312156111cb57600080fd5b610bb482611137565b600080604083850312156111e757600080fd5b6111f083611137565b91506020830135801515811461120557600080fd5b809150509250929050565b634e487b7160e01b600052604160045260246000fd5b600067ffffffffffffffff8084111561124157611241611210565b604051601f8501601f19908116603f0116810190828211818310171561126957611269611210565b8160405280935085815286868601111561128257600080fd5b858560208301376000602087830101525050509392505050565b600080600080608085870312156112b257600080fd5b6112bb85611137565b93506112c960208601611137565b925060408501359150606085013567ffffffffffffffff8111156112ec57600080fd5b8501601f810187136112fd57600080fd5b61130c87823560208401611226565b91505092959194509250565b6000806040838503121561132b57600080fd5b61133483611137565b9150602083013567ffffffffffffffff81111561135057600080fd5b8301601f8101851361136157600080fd5b61137085823560208401611226565b9150509250929050565b6000806040838503121561138d57600080fd5b61139683611137565b91506113a460208401611137565b90509250929050565b600181811c908216806113c157607f821691505b6020821081036113e157634e487b7160e01b600052602260045260246000fd5b50919050565b600083516113f98184602088016110bb565b83519083019061140d8183602088016110bb565b01949350505050565b60006001820161143657634e487b7160e01b600052601160045260246000fd5b5060010190565b60006001600160a01b0380871683528086166020840152508360408301526080606083015261146f60808301846110df565b9695505050505050565b60006020828403121561148b57600080fd5b8151610bb481611088565b601f821115610485576000816000526020600020601f850160051c810160208610156114bf5750805b601f850160051c820191505b81811015610b3d578281556001016114cb565b815167ffffffffffffffff8111156114f8576114f8611210565b61150c8161150684546113ad565b84611496565b602080601f83116001811461154157600084156115295750858301515b600019600386901b1c1916600185901b178555610b3d565b600085815260208120601f198616915b8281101561157057888601518255948401946001909101908401611551565b508582101561158e5787850151600019600388901b60f8161c191681555b5050505050600190811b0190555056fea2646970667358221220d4b4bb6c3d8cee043be5ab5a1418843b6eadbee6a12424f0a4a94cbe42d9d8d064736f6c63430008180033",
  "linkReferences": {},
  "deployedLinkReferences": {}
}