{
  "_format": "hh-sol-artifact-1",
  "contractName": "DailyCheckinReward",
  "sourceName": "contracts/DailyCheckinReward.sol",
  "abi": [
    {
      "inputs": [
        {
          "internalType": "address",
          "name": "tokenAddress",
          "type": "address"
        }
      ],
      "stateMutability": "nonpayable",
      "type": "constructor"
    },
    {
      "inputs": [
        {
          "internalType": "address",
          "name": "owner",
          "type": "address"
        }
      ],
      "name": "OwnableInvalidOwner",
      "type": "error"
    },
    {
      "inputs": [
        {
          "internalType": "address",
          "name": "account",
          "type": "address"
        }
      ],
      "name": "OwnableUnauthorizedAccount",
      "type": "error"
    },
    {
      "anonymous": false,
      "inputs": [
        {
          "indexed": true,
          "internalType": "address",
          "name": "user",
          "type": "address"
        },
        {
          "indexed": false,
          "internalType": "uint256",
          "name": "reward",
          "type": "uint256"
        },
        {
          "indexed": false,
          "internalType": "uint256",
          "name": "timestamp",
          "type": "uint256"
        }
      ],
      "name": "CheckedIn",
      "type": "event"
    },
    {
      "anonymous": false,
      "inputs": [
        {
          "indexed": true,
          "internalType": "address",
          "name": "previousOwner",
          "type": "address"
        },
        {
          "indexed": true,
          "internalType": "address",
          "name": "newOwner",
          "type": "address"
        }
      ],
      "name": "OwnershipTransferred",
      "type": "event"
    },
    {
      "inputs": [],
      "name": "checkIn",
      "outputs": [],
      "stateMutability": "nonpayable",
      "type": "function"
    },
    {
      "inputs": [
        {
          "internalType": "address",
          "name": "user",
          "type": "address"
        }
      ],
      "name": "checkInFor",
      "outputs": [],
      "stateMutability": "nonpayable",
      "type": "function"
    },
    {
      "inputs": [],
      "name": "cooldown",
      "outputs": [
        {
          "internalType": "uint256",
          "name": "",
          "type": "uint256"
        }
      ],
      "stateMutability": "view",
      "type": "function"
    },
    {
      "inputs": [],
      "name": "getContractBalance",
      "outputs": [
        {
          "internalType": "uint256",
          "name": "",
          "type": "uint256"
        }
      ],
      "stateMutability": "view",
      "type": "function"
    },
    {
      "inputs": [
        {
          "internalType": "address",
          "name": "",
          "type": "address"
        }
      ],
      "name": "lastCheckin",
      "outputs": [
        {
          "internalType": "uint256",
          "name": "",
          "type": "uint256"
        }
      ],
      "stateMutability": "view",
      "type": "function"
    },
    {
      "inputs": [],
      "name": "owner",
      "outputs": [
        {
          "internalType": "address",
          "name": "",
          "type": "address"
        }
      ],
      "stateMutability": "view",
      "type": "function"
    },
    {
      "inputs": [],
      "name": "renounceOwnership",
      "outputs": [],
      "stateMutability": "nonpayable",
      "type": "function"
    },
    {
      "inputs": [],
      "name": "reward",
      "outputs": [
        {
          "internalType": "uint256",
          "name": "",
          "type": "uint256"
        }
      ],
      "stateMutability": "view",
      "type": "function"
    },
    {
      "inputs": [
        {
          "internalType": "uint256",
          "name": "newCooldown",
          "type": "uint256"
        }
      ],
      "name": "setCooldown",
      "outputs": [],
      "stateMutability": "nonpayable",
      "type": "function"
    },
    {
      "inputs": [
        {
          "internalType": "uint256",
          "name": "newReward",
          "type": "uint256"
        }
      ],
      "name": "setReward",
      "outputs": [],
      "stateMutability": "nonpayable",
      "type": "function"
    },
    {
      "inputs": [
        {
          "internalType": "address",
          "name": "user",
          "type": "address"
        }
      ],
      "name": "timeRemaining",
      "outputs": [
        {
          "internalType": "uint256",
          "name": "",
          "type": "uint256"
        }
      ],
      "stateMutability": "view",
      "type": "function"
    },
    {
      "inputs": [],
      "name": "token",
      "outputs": [
        {
          "internalType": "contract IERC20",
          "name": "",
          "type": "address"
        }
      ],
      "stateMutability": "view",
      "type": "function"
    },
    {
      "inputs": [
        {
          "internalType": "address",
          "name": "newOwner",
          "type": "address"
        }
      ],
      "name": "transferOwnership",
      "outputs": [],
      "stateMutability": "nonpayable",
      "type": "function"
    },
    {
      "inputs": [
        {
          "internalType": "uint256",
          "name": "amount",
          "type": "uint256"
        }
      ],
      "name": "withdrawTokens",
      "outputs": [],
      "stateMutability": "nonpayable",
      "type": "function"
    }
  ],
  "bytecode": "0x608060405268056bc75e2d631000006002556201518060035534801561002457600080fd5b50604051610b23380380610b238339810160408190526100439161013f565b338061006a57604051631e4fbdf760e01b8152600060048201526024015b60405180910390fd5b610073816100ef565b506001600160a01b0381166100ca5760405162461bcd60e51b815260206004820152601a60248201527f546f6b656e2061646472657373206b686f6e6720686f70206c650000000000006044820152606401610061565b600180546001600160a01b0319166001600160a01b039290921691909117905561016f565b600080546001600160a01b038381166001600160a01b0319831681178455604051919092169283917f8be0079c531659141344cd1fd0a4f28419497f9722a3daafe3b4186f6b6457e09190a35050565b60006020828403121561015157600080fd5b81516001600160a01b038116811461016857600080fd5b9392505050565b6109a58061017e6000396000f3fe608060405234801561001057600080fd5b50600436106100ea5760003560e01c80634fc3f41a1161008c578063787a08a611610066578063787a08a6146101a45780638da5cb5b146101ad578063f2fde38b146101d2578063fc0c546a146101e557600080fd5b80634fc3f41a146101815780636f9fb98a14610194578063715018a61461019c57600080fd5b80632649c86b116100c85780632649c86b14610128578063293be45614610148578063315a095d1461015b5780634c2d34b31461016e57600080fd5b806306c55d1c146100ef578063183ff08514610104578063228cb7331461010c575b600080fd5b6101026100fd366004610896565b6101f8565b005b6101026103fc565b61011560025481565b6040519081526020015b60405180910390f35b610115610136366004610896565b60046020526000908152604090205481565b6101026101563660046108c6565b61056c565b6101026101693660046108c6565b610579565b61011561017c366004610896565b61067c565b61010261018f3660046108c6565b6106e8565b6101156106f5565b610102610780565b61011560035481565b6000546001600160a01b03165b6040516001600160a01b03909116815260200161011f565b6101026101e0366004610896565b610794565b6001546101ba906001600160a01b031681565b6102006107e8565b6001600160a01b03811661025b5760405162461bcd60e51b815260206004820152601460248201527f44696120636869206b686f6e6720686f70206c6500000000000000000000000060448201526064015b60405180910390fd5b6102648161067c565b156102d75760405162461bcd60e51b815260206004820152602560248201527f4e67756f692064756e6720636875612064752032346820646520636865636b6960448201527f6e206c61690000000000000000000000000000000000000000000000000000006064820152608401610252565b6001600160a01b03818116600081815260046020819052604091829020429055600154600254925163a9059cbb60e01b815291820193909352602481019190915291169063a9059cbb906044016020604051808303816000875af1158015610343573d6000803e3d6000fd5b505050506040513d601f19601f8201168201806040525081019061036791906108df565b6103b35760405162461bcd60e51b815260206004820152601560248201527f43687579656e20746f6b656e20746861742062616900000000000000000000006044820152606401610252565b600254604080519182524260208301526001600160a01b038316917f621d62c6c0c4a0c35e883c6b27ad50ecc3093f08bfaf8aa5f58127d351feeb21910160405180910390a250565b6104053361067c565b156104525760405162461bcd60e51b815260206004820152601a60248201527f436875612064752032346820646520636865636b696e206c61690000000000006044820152606401610252565b33600081815260046020819052604091829020429055600154600254925163a9059cbb60e01b81529182019390935260248101919091526001600160a01b039091169063a9059cbb906044016020604051808303816000875af11580156104bd573d6000803e3d6000fd5b505050506040513d601f19601f820116820180604052508101906104e191906108df565b61052d5760405162461bcd60e51b815260206004820152601560248201527f43687579656e20746f6b656e20746861742062616900000000000000000000006044820152606401610252565b6002546040805191825242602083015233917f621d62c6c0c4a0c35e883c6b27ad50ecc3093f08bfaf8aa5f58127d351feeb21910160405180910390a2565b6105746107e8565b600255565b6105816107e8565b6001546001600160a01b031663a9059cbb6105a46000546001600160a01b031690565b6040517fffffffff0000000000000000000000000000000000000000000000000000000060e084901b1681526001600160a01b039091166004820152602481018490526044016020604051808303816000875af1158015610609573d6000803e3d6000fd5b505050506040513d601f19601f8201168201806040525081019061062d91906108df565b6106795760405162461bcd60e51b815260206004820152601260248201527f52757420746f6b656e20746861742062616900000000000000000000000000006044820152606401610252565b50565b6003546001600160a01b03821660009081526004602052604081205490916106a391610930565b42106106b157506000919050565b6003546001600160a01b03831660009081526004602052604090205442916106d891610930565b6106e29190610943565b92915050565b6106f06107e8565b600355565b6001546040517f70a082310000000000000000000000000000000000000000000000000000000081523060048201526000916001600160a01b0316906370a0823190602401602060405180830381865afa158015610757573d6000803e3d6000fd5b505050506040513d601f19601f8201168201806040525081019061077b9190610956565b905090565b6107886107e8565b610792600061082e565b565b61079c6107e8565b6001600160a01b0381166107df576040517f1e4fbdf700000000000000000000000000000000000000000000000000000000815260006004820152602401610252565b6106798161082e565b6000546001600160a01b03163314610792576040517f118cdaa7000000000000000000000000000000000000000000000000000000008152336004820152602401610252565b600080546001600160a01b038381167fffffffffffffffffffffffff0000000000000000000000000000000000000000831681178455604051919092169283917f8be0079c531659141344cd1fd0a4f28419497f9722a3daafe3b4186f6b6457e09190a35050565b6000602082840312156108a857600080fd5b81356001600160a01b03811681146108bf57600080fd5b9392505050565b6000602082840312156108d857600080fd5b5035919050565b6000602082840312156108f157600080fd5b815180151581146108bf57600080fd5b7f4e487b7100000000000000000000000000000000000000000000000000000000600052601160045260246000fd5b808201808211156106e2576106e2610901565b818103818111156106e2576106e2610901565b60006020828403121561096857600080fd5b505191905056fea2646970667358221220be87a7470a4598e6a36ce11a8a4668c15fcdf9b52fff2b7287e708a439f13f8e64736f6c63430008180033",
  "linkReferences": {},
  "deployedLinkReferences": {}
}